S01F00004A7061726B3235395F437573746F6D5F50726F6A6563742E737265635D
S113000045C0000060C000005EC000005CC000008D
S11300105AC0000058C0000056C0000054C0000080
S113002052C0000050C000004EC000004CC0000090
S11300304AC000007EC0000046C0000044C000006A
S113004042C0000040C000003EC000003CC00000B0
S11300503AC0000038C0000036C0000034C00000C0
S113006032C0000030C000002EC000002CC00000D0
S11300702AC0000028C0000026C0000024C00000E0
S113008022C0000020C000001EC0000011241FBEBA
S1130090CFEFD0E4DEBFCDBF11E0A0E0B1E0EAEAEB
S11300A0F7E000E00BBF02C007900D92A637B1073E
S11300B0D9F721E0A6E7B1E001C01D92A13CB20747
S11300C0E1F7BFD270C39CCF60932A0170932B01D8
S11300D080932C0190932D016093A1017093A20150
S11300E08093A3019093A40108958BE080938100F1
S11300F08DE790E0909389008093880082E080935C
S11301006F00109285001092840080912A019091D2
S11301102B01A0912C01B0912D018093A10190930A
S1130120A201A093A301B093A4018FB780688FBFED
S113013008951F920F920FB60F9211248F939F93DD
S1130140AF93BF938091A1019091A201A091A301CB
S1130150B091A4010197A109B1098093A1019093E1
S1130160A201A093A301B093A401892B8A2B8B2B0A
S113017099F481E08093A50180912A0190912B014B
S1130180A0912C01B0912D018093A1019093A20123
S1130190A093A301B093A401BF91AF919F918F91BC
S11301A00F900FBE0F901F901895181619065CF04B
S11301B00895000021503109E1F74F5F5F4F841724
S11301C0950719F4089540E050E027E033E0F1CFBB
S11301D010988BB9119A0000119882E090E0E5CF55
S11301E0089581E0F5CF0895813118F48158F0CF56
S11301F008958155EDCF089584E690E0D6DF88E335
S1130200E7DF86E0E5DF8FE0E3DF81E0E1DF8AE03E
S113021090E0CBCF0895109A8BB9119A00001198F1
S113022081E090E0C2CF089588E4D2DF84E090E0DA
S1130230F2DF8EE090E0EFDF8EE090E0ECDF8EE026
S113024090E0E9DF8FE190E0E6DF80E090E0E3DF3B
S113025084E090E0E0DF80E090E0DDCF08950F934C
S11302601F93CF93DF93182FEB01BBDF8881882383
S113027051F001E0010F812FB7DF8991CCDF102FFE
S113028088818111F6CFDF91CF911F910F9108954D
S11302908CE09ECF08958130910579F082309105EC
S11302A069F1892B99F531E020E080919D0181303D
S11302B009F030E0832F922F2BC08091020194DF4C
S11302C080E2A9DFE5DF80919A018F5F80939A0134
S11302D09091020191509093020120910101921397
S11302E005C0909198019F5F909398018035C9F45F
S11302F010929A0180E28093020123C080919A01B6
S11303008F5F8830A1F510929A012DC080E090E0B3
S113031082309105B1F08330910529F18130910546
S113032049F580910201803119F480E28093020141
S11303308091020159DF81E06EDFAADF81E090E065
S1130340089580919801882339F064E371E081E095
S113035086DF82E090E0089560E471E081E07FDF71
S113036082E090E008953DDF83E090E0089580937B
S11303709A01E7CF08958FEE88B90000309B29C019
S1130380319B29C0329B29C0339B29C08FED88B98A
S11303900000309B26C0319B26C0329B26C0339B75
S11303A026C08FEB88B90000309B23C0319B23C04B
S11303B0329B23C0339B23C08FE788B90000309B56
S11303C020C0319B20C0329B20C0339B20C080E0E2
S11303D0089581E3089584E3089587E308958AE204
S11303E0089582E3089585E3089588E3089580E3FA
S11303F0089583E3089586E3089589E3089583E2E5
S1130400089581E4089582E4089583E4089584E4DA
S11304100895CF93DF93EC018230910529F12CF4F8
S1130420009749F0019771F058C083309105F9F0B5
S1130430049701F152C080919F018430F1F410922D
S11304409F014BC080919F01813019F410929F014C
S113045072C0823019F410929F0173C0833009F086
S11304603CC010929F0174C010929F0164C010920E
S11304709F0167C010929F016BC07DDF8093A6012E
S1130480813331F41092A60184E080939F0166C009
S113049060919E0170E06D5F7E4F40E150E088EA1C
S11304A091E072D11092B8019CDE68EA71E081E0BB
S11304B0D6DE80919E018F5F95E6899F212D1124C0
S11304C0982F921B9695920F92959F7027E1929F79
S11304D08019112480939E0141C061E571E081E09F
S11304E0BEDED6DE48DF8093A601813449F018F4DD
S11304F08823F1F015C0823451F0833471F010C0B8
S113050070DE81E080939F01C1E0D0E027C082E0EB
S113051080939F01C1E0D0E021C083E080939F01DC
S113052061E571E081E09BDEB3DEC1E0D0E016C09E
S1130530C1E0D0E013C081E080939D01C2E0D0E02F
S11305400DC06EE671E081E08ADEC3E0D0E006C053
S113055064E671E081E083DEC4E0D0E0CE01DF91A7
S1130560CF910895CF93DF93EC0181309105A9F0E9
S11305701CF4892B41F047C082309105C9F10397DF
S113058009F44EC040C091E080E020919D012130EB
S113059009F090E0C92FD82F36C080919A018F5F5F
S11305A080939A01E8DE8093A60190919A01903598
S11305B0D1F090919901911112C091E090930001B2
S11305C091E1909301018233F1F482E080939901E7
S11305D081E18093000181E08093010121C0915069
S11305E0909399011DC010929A01C2E0D0E025C0F9
S11305F080919A018F5F883019F080939A0110C01E
S113060010929A010DC0C130D10551F01CF420970D
S113061021F413C0C430D10584F0C0E0D0E00DC093
S113062080910001E1DD80E2F6DD80910101DCDDF5
S113063082E0F1DD2DDEC1E0D0E0CE01DF91CF918B
S11306400895CF93DF9300D000D000D0CDB7DEB7AC
S11306508FEF81B912B884B915B890EF97B99FE0BC
S113066098B98AB98BB9E0DDECE8F1E08091A0019A
S113067080838AEF90E0A0E0B0E081839283A3833B
S1130680B483158216821782108629E032E03287FD
S11306902187E1E8F1E020919C012083818392830A
S11306A0A383B483158216821782108622EB32E06C
S11306B032872187E6E7F1E020919B012083818343
S11306C09283A383B48315821682178210868BE4E7
S11306D091E09287818790DD1092A70186E0EEE297
S11306E0F1E0DE01119601900D928A95E1F761E047
S11306F070E080E090E0E8DCF8DC7E0187E0E80E62
S1130700F11C80B1809580939701DE0111966D01F3
S1130710F601019111916F01D80115964D915D91EA
S11307206D917C91189711968D919D910D90BC912E
S1130730A02D481759076A077B0781F4F8018081C7
S11307400184F285E02D082E000C990B0995D8013F
S11307508C93F8011582168217821086F801858120
S11307609681A781B0850196A11DB11D85839683CD
S1130770A783B087CE14DF0459F68091A50188239E
S1130780E1F31092A501BDCFFB01DC0141505040C3
S113079048F001900D920020C9F701C01D9241500C
S10D07A05040E0F70895F894FFCFED
S11307AA11012057656C636F6D6520746F2054685E
S11307BA652047616D652E20507265737320312060
S11307CA746F2073746172742100010000008C013B
S11307DA81017601596F7520676F74206869740006
S11307EA6E6F2068697473206465746563746564E4
S11307FA00412D506C61792120422D53636F72653B
S113080A2020432D43686172616374657200534307
S109081A4F5245002000CE
S9030000FC
