S01F00004A7061726B3235395F437573746F6D5F50726F6A6563742E737265635D
S113000045C0000060C000005EC000005CC000008D
S11300105AC0000058C0000056C0000054C0000080
S113002052C0000050C000004EC000004CC0000090
S11300304AC0000091C0000046C0000044C0000057
S113004042C0000040C000003EC000003CC00000B0
S11300503AC0000038C0000036C0000034C00000C0
S113006032C0000030C000002EC000002CC00000D0
S11300702AC0000028C0000026C0000024C00000E0
S113008022C0000020C000001EC0000011241FBEBA
S1130090CFEFD0E4DEBFCDBF11E0A0E0B1E0E2E3FA
S11300A0FBE000E00BBF02C007900D92A236B1073F
S11300B0D9F721E0A2E6B1E001C01D92A93DB20743
S11300C0E1F7B7D334C59CCFFC010FB6F894609127
S11300D0D5017091D6018091D7019091D8010FBEBE
S11300E0309721F0608371838283938308956093B2
S11300F02F0170933001809331019093320160930A
S1130100B4017093B5018093B6019093B70108953B
S11301108BE0809381008DE790E090938900809339
S1130120880082E080936F00109285001092840012
S113013080912F0190913001A0913101B091320151
S11301408093B4019093B501A093B601B093B70125
S11301508FB780688FBF08951F920F920FB60F92CA
S113016011248F939F93AF93BF938091B401909187
S1130170B501A091B601B091B7010197A109B109E8
S11301808093B4019093B501A093B601B093B701E5
S1130190892B8A2B8B2B99F481E08093B801809171
S11301A02F0190913001A0913101B09132018093DF
S11301B0B4019093B501A093B601B093B701BF9178
S11301C0AF919F918F910F900FBE0F901F90189534
S11301D0181619065CF00895000021503109E1F762
S11301E04F5F5F4F8417950719F4089540E050E07E
S11301F027E033E0F1CF10988BB9119A00001198E1
S113020082E090E0E5CF089581E0F5CF0895813153
S113021018F48158F0CF08958155EDCF089584E600
S113022090E0D6DF88E3E7DF86E0E5DF8FE0E3DF19
S113023081E0E1DF8AE090E0CBCF0895109A8BB99A
S1130240119A0000119881E090E0C2CF089588E4EB
S1130250D2DF84E090E0F2DF8EE090E0EFDF8EE02A
S113026090E0ECDF8EE090E0E9DF8FE190E0E6DF04
S113027080E090E0E3DF84E090E0E0DF80E090E085
S1130280DDCF08950F931F93CF93DF93182FEB01C6
S1130290BBDF8881882351F001E0010F812FB7DF94
S11302A08991CCDF102F88818111F6CFDF91CF9116
S11302B01F910F91089581309105A1F01CF4892BB1
S11302C039F046C082309105D9F0039709F140C056
S11302D031E020E08091B001813009F030E0832FDB
S11302E0922F18C08091BB018F5F883219F08093E0
S11302F0BB0119C01092BB0180E28093070119C0B1
S11303008091BB018F5F8A3031F51092BB0119C017
S113031081E090E08230910561F08330910589F0AD
S113032081309105D9F481E08093AD0181E090E0C2
S113033008958091AC0182DF1092AD0182E090E0DB
S1130340089581E08093AD015FDF83E090E008953C
S113035080E090E008958093BB01EBCF08958CE09A
S11303604ACF0895EF92FF920F931F93CF93DF9399
S1130370009721F08130910559F066C031E020E00A
S11303808091AD01811101C030E0832F922F5CC0B8
S113039076D383709078992324F401978C6F9F6FA0
S11303A00196039791F48091AD01813071F48091AD
S11303B004018E3051F0E82FF0E0E556FE4F91E154
S11303C090838F5F809304017CC059D383709078AD
S11303D0992324F401978C6F9F6F0196019799F4E8
S11303E08091AD01813079F4809104018E3009F45B
S11303F068C0E82FF0E0E556FE4F90E290838F5FEF
S1130400809304015EC08091AD01882359F159C0E5
S1130410808181508193E217F307D1F7209106017F
S113042040919A013091AC0180E09C91921303C0F9
S11304303F5F1C92482F8F5F11968F30B1F7409326
S11304409A013093AC0104C0009761F00197B1F5B3
S1130450CBE9D1E00F2EFAEAEF2EF1E0FF2EF02DDA
S11304608E010DC0EBE9F1E08AEA91E011928E175A
S11304709F07E1F71092040180E090E028C0F801A2
S113048081918F01811108C0809106018F5FBFDEC9
S113049080E2D4DE64DF04C0BADE81E0CFDE5FDF59
S11304A0E016F10661F789918F5FB1DE80E2C6DE66
S11304B0CE15DF05C1F781E090E009C080E090E04F
S11304C006C0ABE9B1E02AEA31E0FD01A1CFDF913A
S11304D0CF911F910F91FF90EF9008958FEE88B9FF
S11304E00000309B29C0319B29C0329B29C0339B1B
S11304F029C08FED88B90000309B26C0319B26C0EF
S1130500329B26C0339B26C08FEB88B90000309BFA
S113051023C0319B23C0329B23C0339B23C08FE76E
S113052088B90000309B20C0319B20C0329B20C082
S1130530339B20C080E0089581E3089584E3089507
S113054087E308958AE2089582E3089585E3089590
S113055088E3089580E3089583E3089586E3089586
S113056089E3089583E2089581E4089582E4089577
S113057083E4089584E40895CF93DF93EC018230FB
S1130580910529F12CF4009749F0019771F058C0B6
S113059083309105F9F0049701F152C08091B201C2
S11305A08430F1F41092B2014BC08091B2018130D9
S11305B019F41092B20172C0823019F41092B2018F
S11305C073C0833009F03CC01092B20174C0109221
S11305D0B20164C01092B20167C01092B2016BC044
S11305E07DDF8093B901813331F41092B90184E045
S11305F08093B20166C06091B10170E0685F7E4F84
S113060040E150E08CEB91E048D21092CC01FCDD4B
S11306106CEB71E081E036DE8091B1018F5F95E68D
S1130620899F212D1124982F921B9695920F9295B4
S11306309F7027E1929F801911248093B10141C0DA
S11306406DE371E081E01EDE8ADE48DF8093B9014C
S1130650813449F018F48823F1F015C0823451F044
S1130660833471F010C0D0DD81E08093B201C1E029
S1130670D0E027C082E08093B201C1E0D0E021C085
S113068083E08093B2016DE371E081E0FBDD67DE1E
S1130690C1E0D0E016C0C1E0D0E013C081E0809397
S11306A0B001C2E0D0E00DC06AE571E081E0EADDAE
S11306B0C3E0D0E006C060E571E081E0E3DDC4E0C2
S11306C0D0E0CE01DF91CF910895CF93DF93EC0179
S11306D082309105F1F02CF4009759F0019799F0CC
S11306E065C08330910509F458C0049709F46BC0C0
S11306F05DC091E080E02091B001213009F090E0EC
S1130700C92FD82F53C08091AB018F5F8093AB0169
S113071066C08091AB018F5F8093AB01883219F47E
S11307201092AB016EC0DADE8093B901843359F1C3
S113073018F4823331F03AC0853379F08633C9F046
S113074035C0809105018151803108F048C0809105
S1130750060180518093060142C0809105018150B9
S1130760803108F03CC080910601805F80930601CF
S113077036C080910501803290F5809106018F5F2B
S1130780809306012CC080910501823040F1809154
S1130790060181508093060122C08091AB018F5FD6
S11307A08A3009F040C01092AB0130C0C230D1058C
S11307B0B1F01CF42197A1F506C0C330D10509F1AD
S11307C0249721F12DC081E08093AD018091050132
S11307D01EDD81E033DDC3DD81E090E027C0809140
S11307E0050115DD80E22ADD8091060110DD81E03E
S11307F025DDB5DD809106018093050182E090E05E
S113080015C01092AD0183E090E010C081E08093A8
S11308100501809306018093AD0184E090E006C059
S113082080E090E003C08093AB01EBCFDF91CF91E8
S11308300895CF93DF93CDB7DEB72E970FB6F89414
S1130840DEBF0FBECDBF8FEF81B912B884B915B822
S113085090EF97B99FE098B98AB98BB9CE01019608
S113086033DCCB010FD1F3DCEEE8F1E08091B3018E
S113087080838AEF90E0A0E0B0E081839283A38339
S1130880B48315821682178210862CEB32E03287ED
S11308902187E3E8F1E02091AF01208381839283F3
S11308A0A383B483158216821782108625E633E06B
S11308B032872187E8E7F1E02091AE01208381832C
S11308C09283A383B48315821682178210862BE544
S11308D031E032872187EDE6F1E02091AA012083FF
S11308E081839283A383B483158216821782108630
S11308F082EB91E09287818792DC1092BA018AE0C0
S1130900E3E3F1E0DE01159601900D928A95E1F79B
S113091061E070E080E090E0EADBFADB7E018DE0EC
S1130920E80EF11C80B18095809399016E01A5E0D9
S1130930CA0ED11CF601019111916F01D8011596CF
S11309404D915D916D917C91189711968D919D912A
S11309500D90BC91A02D481759076A077B0781F4B5
S1130960F80180810184F285E02D082E000C990B9A
S11309700995D8018C93F801158216821782108686
S1130980F80185819681A781B0850196A11DB11DCD
S113099085839683A783B087CE14DF0459F68091AC
S11309A0B8018823E1F31092B801BCCFA1E21A2E5A
S11309B0AA1BBB1BFD010DC0AA1FBB1FEE1FFF1FFF
S11309C0A217B307E407F50720F0A21BB30BE40B4F
S11309D0F50B661F771F881F991F1A9469F7609596
S11309E07095809590959B01AC01BD01CF01089550
S11309F08F929F92AF92BF92CF92DF92EF92FF922B
S1130A00CF93DF93EC01688179818A819B816115A1
S1130A1071058105910521F464E279ED8BE597E098
S1130A202DE133EF41E050E047D049015A019B01E9
S1130A30AC01A7EAB1E45CD06B017C01ACEEB4EF8D
S1130A40A501940161D0DC01CB018C0D9D1DAE1D6F
S1130A50BF1DB7FF03C00197A109B04888839983DC
S1130A60AA83BB839F77DF91CF91FF90EF90DF90B4
S1130A70CF90BF90AF909F908F900895B9CF80E0B2
S1130A8091E0B6CFA0E0B0E0809300019093010123
S1130A90A0930201B09303010895FB01DC014150CE
S1130AA0504048F001900D920020C9F701C01D92FA
S1130AB041505040E0F70895052E97FB16F400943A
S1130AC00FD057FD05D072DF07FC02D046F408C0F2
S1130AD050954095309521953F4F4F4F5F4F089566
S1130AE090958095709561957F4F8F4F9F4F089596
S1130AF00FD0A59F900DB49F900DA49F800D911DC4
S1130B0011240895B7FFF4CFF3DF821B930B0895EC
S1130B10A29FB001B39FC001A39F700D811D11243A
S1130B20911DB29F700D811D1124911D0895F8949B
S1050B30FFCFF1
S1130B32010000000E01012057656C636F6D652092
S1130B42746F205468652047616D652E205072656C
S1130B527373203120746F207374617274210001E5
S1130B620000008E01830178016D016201412D5064
S1130B726C61792120422D53636F72652020432DCD
S1130B824368617261637465720053434F52450056
S1050B9220003D
S9030000FC
