:1000000045C0000060C000005EC000005CC0000091
:100010005AC0000058C0000056C0000054C0000084
:1000200052C0000050C000004EC000004CC0000094
:100030004AC0000053C1000046C0000044C0000098
:1000400042C0000040C000003EC000003CC00000B4
:100050003AC0000038C0000036C0000034C00000C4
:1000600032C0000030C000002EC000002CC00000D4
:100070002AC0000028C0000026C0000024C00000E4
:1000800022C0000020C000001EC0000011241FBEBE
:10009000CFEFD0E4DEBFCDBF11E0A0E0B1E0EAECED
:1000A000FBE000E00BBF02C007900D92A637B1073E
:1000B000D9F721E0A6E7B1E001C01D92AE3EB2073C
:1000C000E1F7CBD380C59CCFFC010FB6F8946091CB
:1000D000EA017091EB018091EC019091ED010FBE6E
:1000E000309721F060837183828393830895CF9347
:1000F000DF93EC01009719F0019759F04AC091E0A5
:1001000080E02091C201211101C090E0C92FD82FB9
:1001100040C001D583709927892B91F48091C20149
:10012000813071F4809104018E3051F0E82FF0E0BD
:10013000E155FE4F90E190838F5F8093040136C0BC
:10014000EAD483709078992324F401978C6F9F6F81
:100150000196019791F48091C201813071F48091F0
:1001600004018E3019F1E82FF0E0E155FE4F90E2E6
:1001700090838F5F8093040119C08091C20188230E
:1001800081F014C08081815081932E173F07D1F7F1
:1001900012C0209731F0C130D10569F0C0E0D0E045
:1001A0000AC010920401C0E0D0E005C0EFEAF1E01F
:1001B0002EEB31E0E7CFCE01DF91CF91089500978C
:1001C00029F03CF186309105A4F123C08091C10152
:1001D000813079F5A0D465E070E00DD4892B69F108
:1001E0009AD465E070E007D4019761F194D465E09A
:1001F00070E001D4029759F18ED465E070E0FBD332
:10020000039751F188D465E070E0F5D3049789F441
:1002100028C082309105B1F02CF4009751F001977D
:1002200061F024C084309105B9F08CF00597C9F0D5
:100230001DC015B880E090E0089581E085B981E0A7
:1002400090E0089582E085B982E090E0089584E02E
:1002500085B983E090E0089588E085B984E090E076
:10026000089580E185B985E090E0089580E090E010
:10027000089560932F017093300180933101909322
:1002800032016093C9017093CA018093CB019093AE
:10029000CC0108958BE0809381008DE790E09093EE
:1002A00089008093880082E080936F00109285001F
:1002B0001092840080912F0190913001A091310122
:1002C000B09132018093C9019093CA01A093CB01F0
:1002D000B093CC018FB780688FBF08951F920F92A3
:1002E0000FB60F9211248F939F93AF93BF9380917A
:1002F000C9019091CA01A091CB01B091CC010197A5
:10030000A109B1098093C9019093CA01A093CB01BF
:10031000B093CC01892B8A2B8B2B99F481E08093AD
:10032000CD0180912F0190913001A0913101B091C8
:1003300032018093C9019093CA01A093CB01B0937D
:10034000CC01BF91AF919F918F910F900FBE0F90F5
:100350001F901895181619065CF00895000021509A
:100360003109E1F74F5F5F4F8417950719F408953E
:1003700040E050E027E033E0F1CF10988BB9119ABC
:100380000000119882E090E0E5CF089581E0F5CF7C
:100390000895813118F48158F0CF08958155EDCF3B
:1003A000089584E690E0D6DF88E3E7DF86E0E5DFC6
:1003B0008FE0E3DF81E0E1DF8AE090E0CBCF0895DA
:1003C000109A8BB9119A0000119881E090E0C2CF89
:1003D000089588E4D2DF84E090E0F2DF8EE090E0E0
:1003E000EFDF8EE090E0ECDF8EE090E0E9DF8FE180
:1003F00090E0E6DF80E090E0E3DF84E090E0E0DFA3
:1004000080E090E0DDCF08950F931F93CF93DF93AB
:10041000182FEB01BBDF8881882351F001E0010F29
:10042000812FB7DF8991CCDF102F88818111F6CF22
:10043000DF91CF911F910F91089581309105A1F027
:100440001CF4892B39F04CC082309105D9F0039708
:1004500009F146C031E020E08091C501813009F00A
:1004600030E0832F922F18C08091D0018F5F8A30A7
:1004700019F08093D00119C01092D00180E28093CE
:10048000070119C08091D0018F5F8A3061F5109209
:10049000D0011DC081E090E08230910561F0833091
:1004A0009105A9F08130910509F581E08093C201A1
:1004B00081E090E008956DE371E081E0A5DF1092A6
:1004C000C20181E08093C10182E090E00895109222
:1004D000C10181E08093C20159DF83E090E008957B
:1004E00080E090E008958093D001E5CF08958CE0FE
:1004F00044CF08958FEE88B90000309B29C0319B0E
:1005000029C0329B29C0339B29C08FED88B90000D8
:10051000309B26C0319B26C0329B26C0339B26C011
:100520008FEB88B90000309B23C0319B23C0329BE6
:1005300023C0339B23C08FE788B90000309B20C0C5
:10054000319B20C0329B20C0339B20C080E00895A7
:1005500081E3089584E3089587E308958AE2089586
:1005600082E3089585E3089588E3089580E308957C
:1005700083E3089586E3089589E3089583E2089567
:1005800081E4089582E4089583E4089584E408955D
:10059000CF93DF93EC018230910529F12CF4009781
:1005A00049F0019771F058C083309105F9F0049734
:1005B00001F152C08091C7018430F1F41092C7015B
:1005C0004BC08091C701813019F41092C70172C0ED
:1005D000823019F41092C70173C0833009F03CC017
:1005E0001092C70174C01092C70164C01092C70175
:1005F00067C01092C7016BC07DDF8093CE0181334D
:1006000031F41092CE0184E08093C70166C06091FE
:10061000C60170E0685F7E4F40E150E081ED91E0FF
:1006200088D21092E101B2DE61ED71E081E0ECDE92
:100630008091C6018F5F95E6899F212D1124982F07
:10064000921B9695920F92959F7027E1929F801929
:1006500011248093C60141C061E571E081E0D4DEE0
:1006600046DF48DF8093CE01813449F018F48823B7
:10067000F1F015C0823451F0833471F010C086DE81
:1006800081E08093C701C1E0D0E027C082E0809381
:10069000C701C1E0D0E021C083E08093C70161E5DC
:1006A00071E081E0B1DE23DFC1E0D0E016C0C1E03F
:1006B000D0E013C081E08093C501C2E0D0E00DC05E
:1006C0006EE671E081E0A0DEC3E0D0E006C064E643
:1006D00071E081E099DEC4E0D0E0CE01DF91CF91FE
:1006E0000895CF93DF93EC0182309105F1F02CF463
:1006F000009759F0019799F065C08330910509F48E
:1007000058C0049709F46CC05DC091E080E020916E
:10071000C501213009F090E0C92FD82F53C0809136
:10072000C0018F5F8093C00167C08091C0018F5F5F
:100730008093C0018A3019F41092C00171C0DADED2
:100740008093CE01843359F118F4823331F03AC0EA
:10075000853379F08633C9F035C080910501815128
:10076000803108F049C080910601805180930601D4
:1007700043C0809105018150803108F03DC08091D7
:100780000601805F8093060137C0809105018032A9
:1007900098F5809106018F5F809306012DC08091AE
:1007A0000501823048F18091060181508093060155
:1007B00023C08091C0018F5F8A3009F048C0109239
:1007C000C00134C0C230D105B9F024F4219709F03A
:1007D0003BC006C0C330D10519F1249739F134C0AC
:1007E00081E08093C20180910501D3DD81E0E8DDE5
:1007F0007EDE81E090E02EC080910501CADD80E2BE
:10080000DFDD80910601C5DD81E0DADD70DE8091FB
:1008100006018093050180E285B982E090E01AC06C
:1008200015B81092C20183E090E014C081E080937B
:100830000501809306018093C2011092C1011092BC
:10084000BF0184E090E006C080E090E003C08093A8
:10085000C001E6CFDF91CF910895CF93DF93CDB75D
:10086000DEB72E970FB6F894DEBF0FBECDBF8FEF69
:1008700081B912B884B915B890EF97B99FE098B9CB
:100880008AB98BB9CE0101961FDCCB0147D1A1DD1E
:10089000E2EAF1E08091C80180838AEF90E0A0E075
:1008A000B0E081839283A383B4831582168217827A
:1008B000108628EC32E032872187E7E9F1E02091C9
:1008C000C401208381839283A383B483158216821B
:1008D0001782108621E733E032872187ECE8F1E0C8
:1008E0002091C301208381839283A383B4831582E3
:1008F0001682178210862DE132E032872187E1E8E7
:10090000F1E02091BE01208381839283A383B4838D
:10091000158216821782108627E730E032872187FA
:10092000E6E7F1E02091AE01208381839283A383E7
:10093000B48315821682178210868FED90E092871D
:1009400081872FDD1092CF018AE0E3E3F1E0DE0141
:10095000159601900D928A95E1F761E070E080E0D4
:1009600090E087DC97DC7E018FE0E80EF11C80B11F
:1009700080958093AD016E01A5E0CA0ED11CF601F1
:10098000019111916F01D80115964D915D916D9175
:100990007C91189711968D919D910D90BC91A02DF1
:1009A000481759076A077B0781F4F80180810184A1
:1009B000F285E02D082E000C990B0995D8018C9337
:1009C000F8011582168217821086F80185819681BA
:1009D000A781B0850196A11DB11D85839683A7834C
:1009E000B087CE14DF0459F68091CD018823E1F35E
:1009F0001092CD01BCCF97FB072E16F4009406D0C1
:100A000077FD08D02DD007FC05D03EF49095819558
:100A10009F4F0895709561957F4F0895A1E21A2E1A
:100A2000AA1BBB1BFD010DC0AA1FBB1FEE1FFF1F92
:100A3000A217B307E407F50720F0A21BB30BE40BE2
:100A4000F50B661F771F881F991F1A9469F7609529
:100A50007095809590959B01AC01BD01CF010895E3
:100A6000AA1BBB1B51E107C0AA1FBB1FA617B707D4
:100A700010F0A61BB70B881F991F5A95A9F78095F0
:100A80009095BC01CD0108958F929F92AF92BF9235
:100A9000CF92DF92EF92FF92CF93DF93EC016881C8
:100AA00079818A819B81611571058105910521F408
:100AB00064E279ED8BE597E02DE133EF41E050E022
:100AC00047D049015A019B01AC01A7EAB1E45CD0CF
:100AD0006B017C01ACEEB4EFA501940161D0DC01A7
:100AE000CB018C0D9D1DAE1DBF1DB7FF03C001972F
:100AF000A109B04888839983AA83BB839F77DF913C
:100B0000CF91FF90EF90DF90CF90BF90AF909F90EC
:100B10008F900895B9CF80E091E0B6CFA0E0B0E02B
:100B20008093000190930101A0930201B09303010F
:100B30000895FB01DC014150504048F001900D92B6
:100B40000020C9F701C01D9241505040E0F70895C0
:100B5000052E97FB16F400940FD057FD05D05EDFED
:100B600007FC02D046F408C0509540953095219579
:100B70003F4F4F4F5F4F08959095809570956195C9
:100B80007F4F8F4F9F4F08950FD0A59F900DB49F1B
:100B9000900DA49F800D911D11240895B7FFF4CFEF
:100BA000F3DF821B930B0895A29FB001B39FC00196
:100BB000A39F700D811D1124911DB29F700D811D89
:0A0BC0001124911D0895F894FFCF51
:100BCA00010000000E01012057656C636F6D6520FE
:100BDA00746F205468652047616D652E20507265D8
:100BEA007373203120746F20737461727421000151
:100BFA00000000A20197018C018101760148697405
:100C0A0020746865206D6964646C65204C454421D4
:100C1A0000412D506C61792120422D53636F72651A
:100C2A002020432D436861726163746572005343E7
:060C3A004F5245002000AE
:00000001FF
