:1000000045C0000060C000005EC000005CC0000091
:100010005AC0000058C0000056C0000054C0000084
:1000200052C0000050C000004EC000004CC0000094
:100030004AC0000091C0000046C0000044C000005B
:1000400042C0000040C000003EC000003CC00000B4
:100050003AC0000038C0000036C0000034C00000C4
:1000600032C0000030C000002EC000002CC00000D4
:100070002AC0000028C0000026C0000024C00000E4
:1000800022C0000020C000001EC0000011241FBEBE
:10009000CFEFD0E4DEBFCDBF11E0A0E0B1E0EEECE9
:1000A000FBE000E00BBF02C007900D92A037B10744
:1000B000D9F721E0A0E7B1E001C01D92A03DB20751
:1000C000E1F7EFD382C59CCFFC010FB6F8946091A5
:1000D000CC017091CD018091CE019091CF010FBEE6
:1000E000309721F0608371838283938308956093B6
:1000F0003C0170933D0180933E0190933F016093DA
:10010000AA017093AB018093AC019093AD01089567
:100110008BE0809381008DE790E09093890080933D
:10012000880082E080936F00109285001092840016
:1001300080913C0190913D01A0913E01B0913F0121
:100140008093AA019093AB01A093AC01B093AD0151
:100150008FB780688FBF08951F920F920FB60F92CE
:1001600011248F939F93AF93BF938091AA01909195
:10017000AB01A091AC01B091AD010197A109B1090A
:100180008093AA019093AB01A093AC01B093AD0111
:10019000892B8A2B8B2B99F481E08093AE0180917F
:1001A0003C0190913D01A0913E01B0913F018093AF
:1001B000AA019093AB01A093AC01B093AD01BF91A4
:1001C000AF919F918F910F900FBE0F901F90189538
:1001D000181619065CF00895000021503109E1F766
:1001E0004F5F5F4F8417950719F4089540E050E082
:1001F00027E033E0F1CF10988BB9119A00001198E5
:1002000082E090E0E5CF089581E0F5CF0895813157
:1002100018F48158F0CF08958155EDCF089584E604
:1002200090E0D6DF88E3E7DF86E0E5DF8FE0E3DF1D
:1002300081E0E1DF8AE090E0CBCF0895109A8BB99E
:10024000119A0000119881E090E0C2CF089588E4EF
:10025000D2DF84E090E0F2DF8EE090E0EFDF8EE02E
:1002600090E0ECDF8EE090E0E9DF8FE190E0E6DF08
:1002700080E090E0E3DF84E090E0E0DF80E090E089
:10028000DDCF08950F931F93CF93DF93182FEB01CA
:10029000BBDF8881882351F001E0010F812FB7DF98
:1002A0008991CCDF102F88818111F6CFDF91CF911A
:1002B0001F910F9108956F927F928F929F92AF92AC
:1002C000BF92CF92DF92EF92FF920F931F93CF9343
:1002D000DF937C0181E0E816F10409F443C0E2E019
:1002E000EE16F10409F4B8C0E114F10409F017C1E5
:1002F0008091A4018111FFC0C4E0D1E003E911E0C5
:100300000F2EF3E1CF2EF1E0DF2EF02D0F2EF6E0D1
:10031000AF2EB12CF02D0F2EFAE08F2E912CF02D58
:100320000F2EF1E26F2E712CF02DF7D3B50165D3AE
:10033000019729F4F2D3B30160D388830CC0EDD3C5
:10034000B4015BD3019731F4E8D3B30156D3F8017C
:10035000808301C0188221960F5F1F4FCC15DD05E9
:1003600021F7DDC08091A401813009F0C8C08091DF
:10037000A601813009F0C6C0C4E0D1E003E111E07C
:100380007E01F70181917F0142DF83E057DF0E1587
:100390001F05B9F70F2EF3E9EF2EF1E0FF2EF02D38
:1003A0000F2EF2EACF2EF1E0DF2EF02DF701819132
:1003B0007F012DDF85E042DFEC14FD04B9F70F2E3D
:1003C000F4E0AF2EF1E0BF2EF02D912C0F2EF1E2D4
:1003D000CF2ED12CF02DF50120818091140128130E
:1003E0000DC0909292018091A3018F5F8093A30131
:1003F00094D3B60102D3F501808314C08091130118
:1004000090E0019730E08217930761F49092920197
:100410008091A3018F5F8093A3017FD3B601EDD2BA
:10042000F50180839394FFEFAF1ABF0A8FE0981213
:10043000D2CFFE018881813009F06DC080E2815009
:10044000808301C010822196C017D10791F768946C
:10045000EE24E1F8F12C63C08091A401813009F011
:1004600054C08091A601813009F052C0C4E0D1E0AF
:100470000F2EF3E1EF2EF1E0FF2EF02D8E01F801AB
:1004800081918F018F5FC3DE80E2D8DE0E151F05DC
:10049000B1F710E00F2EF1E2EF2EF12CF02D2881B4
:1004A0008091140128130CC0109392018091A30134
:1004B0008F5F8093A30131D3B7019FD2888313C08C
:1004C0008091130190E0019730E08217930759F46F
:1004D000109392018091A3018F5F8093A3011DD39C
:1004E000B7018BD288831F5F21961F30C1F6EE249F
:1004F000E394F12C14C0EE24E394F12C10C0E12C11
:10050000F12C0DC0E12CF12C0AC0E12CF12C07C01C
:10051000E12CF12C04C0823008F091CF93CFC701B9
:10052000DF91CF911F910F91FF90EF90DF90CF90CF
:10053000BF90AF909F908F907F906F9008958CE0C8
:100540005ACE08958FEE88B90000309B29C0319BA8
:1005500029C0329B29C0339B29C08FED88B9000088
:10056000309B26C0319B26C0329B26C0339B26C0C1
:100570008FEB88B90000309B23C0319B23C0329B96
:1005800023C0339B23C08FE788B90000309B20C075
:10059000319B20C0329B20C0339B20C080E0089557
:1005A00081E3089584E3089587E308958AE2089536
:1005B00082E3089585E3089588E3089580E308952C
:1005C00083E3089586E3089589E3089583E2089517
:1005D00081E4089582E4089583E4089584E408950D
:1005E000CF93DF93EC018230910551F12CF4009709
:1005F00051F0019779F06FC08430910581F164F179
:10060000059781F168C08091A8018430A1F510920E
:10061000A80161C08091A801813039F41092A8012D
:100620008093A601C2E0D0E087C0823019F4109216
:10063000A8017CC0833009F04EC01092A8016FC0A1
:100640008091A601813019F41092A80175C0811122
:1006500073C0C5E0D0E070C01092A80167C01092CE
:10066000A8015DC08091AF018F5F8093AF018A3098
:1006700009F062C030C066DF8093B001813331F48D
:100680001092B00184E08093A80156C06091A70148
:1006900070E06B5E7E4F40E150E083EB91E04BD227
:1006A0001092C301B1DD63EB71E081E0EBDD80917D
:1006B000A7018F5F95E6899F212D1124982F921B0A
:1006C0009695920F92959F7027E1929F8019112421
:1006D0008093A70131C066E471E081E0D3DD2FDFB4
:1006E00031DF8093B001823459F0833479F0813462
:1006F00099F48ADD81E08093A801C1E0D0E01CC0BC
:1007000082E08093A801C1E0D0E016C083E080932E
:10071000A801C1E0D0E010C0C1E0D0E00DC069E5A3
:1007200071E081E0AFDDC4E0D0E006C063E671E0D7
:1007300081E0A8DDC3E0D0E0CE01DF91CF91089544
:10074000CF93DF93EC0182309105E1F02CF4009718
:1007500059F0019799F064C08330910509F453C0B2
:10076000049709F495C05CC091E080E02091A60157
:10077000213009F090E0C92FD82F52C081E080933A
:10078000A40163C08091A6018130D1F5DBDE8093A6
:10079000B001843359F118F4823331F041C085330C
:1007A00079F08633C9F03CC08091130181518031CA
:1007B00008F04BC08091140180518093140145C012
:1007C000809113018150803108F03FC08091140165
:1007D000805F8093140139C0809113018032A8F5A5
:1007E000809114018F5F809314012FC080911301B9
:1007F000823058F18091140181508093140125C0FA
:100800008823A9F122C01092A4018091B2018F5FC8
:100810008A3019F08093B2012AC01092B2012EC022
:10082000C230D10591F024F4C130D10539F033C084
:10083000C330D105E1F0249709F12DC08091130157
:10084000E6DC81E0FBDC7BDE28C080911301DFDC8D
:1008500080E2F4DC80911401DADC81E0EFDC6FDE11
:100860008091140180931301C2E0D0E016C069E6C4
:1008700071E081E007DDC3E0D0E00FC081E080934C
:100880001301809314011092A401C4E0D0E005C0CC
:10089000C0E0D0E002C0C0E0D0E0CE01DF91CF9157
:1008A0000895CF93DF93CDB7DEB72A970FB6F894AC
:1008B000DEBF0FBECDBF8FEF81B912B884B915B8B6
:1008C00090EF97B99FE098B98AB98BB9CE0101969C
:1008D000FBDBCB0125D1BBDCE6E8F1E08091A9018F
:1008E00080838AEF90E0A0E0B0E081839283A383CD
:1008F000B483158216821782108620EF32E0328789
:100900002187EBE7F1E02091A50120838183928389
:10091000A383B483158216821782108620EA33E0FF
:1009200032872187E0E7F1E02091A20120838183D3
:100930009283A383B48315821682178210868BE577
:1009400091E0928781876BDC1092B10186E0E0E450
:10095000F1E0DE01159601900D928A95E1F761E0D4
:1009600070E080E090E0C3DBD3DB7E018BE0E80E3B
:10097000F11C80B18095809391016E01A5E0CA0EB3
:10098000D11CF601019111916F01D80115964D917D
:100990005D916D917C91189711968D919D910D901F
:1009A000BC91A02D481759076A077B0781F4F8010D
:1009B00080810184F285E02D082E000C990B0995A9
:1009C000D8018C93F8011582168217821086F801DF
:1009D00085819681A781B0850196A11DB11D858372
:1009E0009683A783B087CE14DF0459F68091AE01B9
:1009F0008823E1F31092AE01BCCF97FB072E16F4CB
:100A0000009406D077FD08D02DD007FC05D03EF429
:100A1000909581959F4F0895709561957F4F0895AA
:100A2000A1E21A2EAA1BBB1BFD010DC0AA1FBB1FF2
:100A3000EE1FFF1FA217B307E407F50720F0A21B64
:100A4000B30BE40BF50B661F771F881F991F1A94D1
:100A500069F760957095809590959B01AC01BD01FB
:100A6000CF010895AA1BBB1B51E107C0AA1FBB1FE2
:100A7000A617B70710F0A61BB70B881F991F5A952A
:100A8000A9F780959095BC01CD0108958F929F9212
:100A9000AF92BF92CF92DF92EF92FF92CF93DF930C
:100AA000EC01688179818A819B81611571058105DD
:100AB000910521F464E279ED8BE597E02DE133EFC8
:100AC00041E050E047D049015A019B01AC01A7EA3F
:100AD000B1E45CD06B017C01ACEEB4EFA5019401F4
:100AE00061D0DC01CB018C0D9D1DAE1DBF1DB7FF7C
:100AF00003C00197A109B04888839983AA83BB8367
:100B00009F77DF91CF91FF90EF90DF90CF90BF90D4
:100B1000AF909F908F900895B9CF80E091E0B6CFCD
:100B2000A0E0B0E08093000190930101A093020146
:100B3000B09303010895FB01DC014150504048F09F
:100B400001900D920020C9F701C01D924150504004
:100B5000E0F70895052E97FB16F400940FD057FD8B
:100B600005D05EDF07FC02D046F408C050954095E2
:100B7000309521953F4F4F4F5F4F08959095809549
:100B8000709561957F4F8F4F9F4F08950FD0A59F10
:100B9000900DB49F900DA49F800D911D1124089578
:100BA000B7FFF4CFF3DF821B930B0895A29FB00130
:100BB000B39FC001A39F700D811D1124911DB29F91
:0E0BC000700D811D1124911D0895F894FFCF32
:100BCE0001000000050C000000000F0000001E00D8
:100BDE00001400010157656C636F6D6520746F2002
:100BEE005468652047616D652E20507265737320C1
:100BFE003120746F20737461727421000100000043
:100C0E0086017B017001412D506C61792120422DAE
:100C1E0053636F72652020432D4368617261637464
:100C2E0065720053434F5245004C4F534500200010
:00000001FF
