:1000000045C0000060C000005EC000005CC0000091
:100010005AC0000058C0000056C0000054C0000084
:1000200052C0000050C000004EC000004CC0000094
:100030004AC0000091C0000046C0000044C000005B
:1000400042C0000040C000003EC000003CC00000B4
:100050003AC0000038C0000036C0000034C00000C4
:1000600032C0000030C000002EC000002CC00000D4
:100070002AC0000028C0000026C0000024C00000E4
:1000800022C0000020C000001EC0000011241FBEBE
:10009000CFEFD0E4DEBFCDBF11E0A0E0B1E0E8EDEE
:1000A000FCE000E00BBF02C007900D92A436B10740
:1000B000D9F721E0A4E6B1E001C01D92AB3EB20742
:1000C000E1F763D407C69CCFFC010FB6F8946091AA
:1000D000E7017091E8018091E9019091EA010FBE7A
:1000E000309721F0608371838283938308956093B6
:1000F000300170933101809332019093330160930A
:10010000C6017093C7018093C8019093C9010895F7
:100110008BE0809381008DE790E09093890080933D
:10012000880082E080936F00109285001092840016
:100130008091300190913101A0913201B091330151
:100140008093C6019093C701A093C801B093C901E1
:100150008FB780688FBF08951F920F920FB60F92CE
:1001600011248F939F93AF93BF938091C601909179
:10017000C701A091C801B091C9010197A109B109B6
:100180008093C6019093C701A093C801B093C901A1
:10019000892B8A2B8B2B99F481E08093CA01809163
:1001A000300190913101A0913201B09133018093DF
:1001B000C6019093C701A093C801B093C901BF9134
:1001C000AF919F918F910F900FBE0F901F90189538
:1001D000181619065CF00895000021503109E1F766
:1001E0004F5F5F4F8417950719F4089540E050E082
:1001F00027E033E0F1CF10988BB9119A00001198E5
:1002000082E090E0E5CF089581E0F5CF0895813157
:1002100018F48158F0CF08958155EDCF089584E604
:1002200090E0D6DF88E3E7DF86E0E5DF8FE0E3DF1D
:1002300081E0E1DF8AE090E0CBCF0895109A8BB99E
:10024000119A0000119881E090E0C2CF089588E4EF
:10025000D2DF84E090E0F2DF8EE090E0EFDF8EE02E
:1002600090E0ECDF8EE090E0E9DF8FE190E0E6DF08
:1002700080E090E0E3DF84E090E0E0DF80E090E089
:10028000DDCF08950F931F93CF93DF93182FEB01CA
:10029000BBDF8881882351F001E0010F812FB7DF98
:1002A0008991CCDF102F88818111F6CFDF91CF911A
:1002B0001F910F91089581309105A1F01CF4892BB5
:1002C00039F047C082309105D9F0039709F141C058
:1002D00031E020E08091C201813009F030E0832FCD
:1002E000922F18C08091CD018F5F883219F08093D2
:1002F000CD0119C01092CD0180E28093080119C090
:100300008091CD018F5F8A3039F51092CD011AC0EE
:1003100081E090E08230910561F08330910591F0A9
:1003200081309105E1F481E08093BF0181E090E0AC
:1003300008958091BE01805D81DF1092BF0182E04F
:1003400090E0089581E08093BF015EDF83E090E05C
:10035000089580E090E008958093CD01EACF08955C
:100360008CE049CF0895EF92FF920F931F93CF93A4
:10037000DF93009721F08130910559F0C7C031E03B
:1003800020E08091BF01811101C030E0832F922FC6
:10039000BDC048D466E070E0B5D3039791F4809176
:1003A000BF01813071F4809105018E3051F0E82F4A
:1003B000F0E0E355FE4F91E190838F5F809305015C
:1003C00010C130D466E070E09DD3019791F4809124
:1003D000BF01813071F4809105018E3051F0E82F1A
:1003E000F0E0E355FE4F90E290838F5F809305012C
:1003F000F8C018D46AE070E085D3019761F5809168
:10040000BF01813041F5C0910401CE3009F4E9C04B
:1004100009D4EC2FF0E0E256FE4F8F7190789923CB
:1004200024F40197806E9F6F01968083ADEAB1E05E
:10043000EEE9F1E02DEA31E09D918081981301C051
:10044000108231962E173F07B9F7809104018F5F14
:1004500080930401C6C08091BF018111C2C0809108
:10046000C201813009F0BDC060C08C9181508D9374
:10047000A217B307D1F7AEE9B1E02DEA31E0ED0103
:10048000888181508993C217D307D1F73091070132
:1004900070919D016091BE014091060150E0415074
:1004A000510920E08081831304C06F5F1082722F96
:1004B00007C090E04817590719F46F5F1082722F38
:1004C0002F5F31962F3071F770939D016093BE01BD
:1004D00070919C016091C20120E0C0E0FD018C910F
:1004E000381304C01C92722F6C2F07C090E048177D
:1004F000590719F41082722F6C2F2F5F11962F302D
:1005000069F770939C016093C20105C0009769F080
:10051000019709F063C0CDEAD1E00F2EFCEBEF2E7E
:10052000F1E0FF2EF02D8E0115C0EDEAF1E08CEB2D
:1005300091E011928E179F07E1F710920501EEE905
:10054000F1E08DEA91E01192E817F907E1F780E018
:1005500090E04DC0F80181918F01811108C0809118
:1005600007018F5F54DE80E269DEFADE04C04FDEF1
:1005700083E064DEF5DEE016F10661F789918F5FB6
:1005800046DE80E25BDEEC16FD06C1F7CEE9D1E087
:100590000F2EFDEAEF2EF1E0FF2EF02D8E01F80177
:1005A00081918F01811108C0809107018F5F2FDE3B
:1005B00080E244DED5DE04C02ADE82E03FDED0DE0B
:1005C000E016F10661F789918F5F21DE80E236DE69
:1005D000EC16FD06C1F781E090E009C080E090E0F4
:1005E00006C0EDEAF1E02CEB31E0DF013ECFDF9118
:1005F000CF911F910F91FF90EF9008958FEE88B9E2
:100600000000309B29C0319B29C0329B29C0339BFD
:1006100029C08FED88B90000309B26C0319B26C0D1
:10062000329B26C0339B26C08FEB88B90000309BDD
:1006300023C0319B23C0329B23C0339B23C08FE751
:1006400088B90000309B20C0319B20C0329B20C065
:10065000339B20C080E0089581E3089584E30895EA
:1006600087E308958AE2089582E3089585E3089573
:1006700088E3089580E3089583E3089586E3089569
:1006800089E3089583E2089581E4089582E408955A
:1006900083E4089584E408958230910591F134F45F
:1006A000009759F08130910581F039C08330910570
:1006B00081F18430910581F132C08091C401843090
:1006C00009F040C01092C40171C08091C401813012
:1006D00029F41092C4018093C2018AC0823019F4B7
:1006E0001092C4018AC0833019F41092C4018CC0E6
:1006F00081115CC08091C201811158C084E085B92C
:1007000055C01092C4018091C201882309F44EC0E3
:100710006FC01092C40171C01092C40175C08230C4
:10072000910509F465C034F4009761F0019709F070
:1007300072C03CC08330910509F45FC0049709F092
:100740006AC062C05BDF8093CB01813341F41092B9
:10075000CB0184E08093C40180E090E00895609133
:10076000C30170E0675F7E4F40E150E08EEC91E0A6
:1007700067D21092DE0148DD6EEC71E081E082DD2F
:100780008091C3018F5F95E6899F212D1124982FB9
:10079000921B9695920F92959F7027E1929F8019D8
:1007A00011248093C30180E090E0089581E085B931
:1007B0006EE371E067DDD4DD21DF8093CB0182340D
:1007C00059F0833479F0813449F51EDD81E080935E
:1007D000C40181E090E0089582E08093C40181E04B
:1007E00090E0089583E08093C40181E090E0089553
:1007F00084E085B982E090E008956BE571E081E0E6
:1008000041DD83E090E0089561E571E081E03ADD4B
:1008100084E090E0089580E090E0089581E090E029
:100820000895CF93DF93EC0182309105F1F02CF421
:10083000009759F0019799F065C08330910509F44C
:1008400058C0049709F46BC05DC091E080E020912E
:10085000C201213009F090E0C92FD82F53C08091F8
:10086000BD018F5F8093BD0166C08091BD018F5F28
:100870008093BD01883219F41092BD016EC0BEDEB6
:100880008093CB01843359F118F4823331F03AC0AC
:10089000853379F08633C9F035C0809106018151E6
:1008A000803108F048C08091070180518093070192
:1008B00042C0809106018150803108F03CC0809197
:1008C0000701805F8093070136C080910601803266
:1008D00090F5809107018F5F809307012CC0809174
:1008E0000601823040F18091070181508093070119
:1008F00022C08091BD018F5F8A3009F040C0109204
:10090000BD0130C0C230D105B1F01CF42197A1F572
:1009100006C0C330D10509F1249721F12DC081E033
:100920008093BF018091060172DC81E087DC18DDD5
:1009300081E090E027C08091060169DC80E27EDCE6
:100940008091070164DC81E079DC0ADD8091070198
:100950008093060182E090E015C01092BF0183E011
:1009600090E010C081E0809306018093070180939E
:10097000BF0184E090E006C080E090E003C0809377
:10098000BD01EBCFDF91CF910895CF93DF93CDB72A
:10099000DEB72E970FB6F894DEBF0FBECDBF8FEF38
:1009A00081B912B884B915B890EF97B99FE098B99A
:1009B0008AB98BB9CE01019687DBCB0136D147DCF2
:1009C000E0E9F1E08091C50180838AEF90E0A0E04A
:1009D000B0E081839283A383B48315821682178249
:1009E00010862CE433E032872187E5E8F1E020919E
:1009F000C101208381839283A383B48315821682ED
:100A00001782108621E134E032872187EAE7F1E09E
:100A10002091C001208381839283A383B4831582B4
:100A20001682178210862BE531E032872187EFE6A8
:100A3000F1E02091BC01208381839283A383B4835E
:100A4000158216821782108683EB91E09287818748
:100A5000E6DB1092CC018AE0E4E3F1E0DE011596DA
:100A600001900D928A95E1F761E070E080E090E0FE
:100A70003EDB4EDB7E018DE0E80EF11C80B18095FF
:100A800080939B016E01A5E0CA0ED11CF601019175
:100A900011916F01D80115964D915D916D917C91E9
:100AA000189711968D919D910D90BC91A02D48178E
:100AB00059076A077B0781F4F80180810184F28578
:100AC000E02D082E000C990B0995D8018C93F801A4
:100AD0001582168217821086F80185819681A7817A
:100AE000B0850196A11DB11D85839683A783B0872C
:100AF000CE14DF0459F68091CA018823E1F31092E5
:100B0000CA01BCCF97FB072E16F4009406D077FDE0
:100B100008D02DD007FC05D03EF4909581959F4FCD
:100B20000895709561957F4F0895A1E21A2EAA1B32
:100B3000BB1BFD010DC0AA1FBB1FEE1FFF1FA2178D
:100B4000B307E407F50720F0A21BB30BE40BF50B8A
:100B5000661F771F881F991F1A9469F76095709513
:100B6000809590959B01AC01BD01CF010895AA1B12
:100B7000BB1B51E107C0AA1FBB1FA617B70710F088
:100B8000A61BB70B881F991F5A95A9F780959095BA
:100B9000BC01CD0108958F929F92AF92BF92CF92E8
:100BA000DF92EF92FF92CF93DF93EC01688179811E
:100BB0008A819B81611571058105910521F464E2AB
:100BC00079ED8BE597E02DE133EF41E050E047D040
:100BD00049015A019B01AC01A7EAB1E45CD06B0169
:100BE0007C01ACEEB4EFA501940161D0DC01CB0136
:100BF0008C0D9D1DAE1DBF1DB7FF03C00197A10940
:100C0000B04888839983AA83BB839F77DF91CF9174
:100C1000FF90EF90DF90CF90BF90AF909F908F901C
:100C20000895B9CF80E091E0B6CFA0E0B0E0809326
:100C3000000190930101A0930201B0930301089574
:100C4000FB01DC014150504048F001900D92002022
:100C5000C9F701C01D9241505040E0F70895052E9C
:100C600097FB16F400940FD057FD05D05EDF07FC0C
:100C700002D046F408C050954095309521953F4FDD
:100C80004F4F5F4F089590958095709561957F4F78
:100C90008F4F9F4F08950FD0A59F900DB49F900D3B
:100CA000A49F800D911D11240895B7FFF4CFF3DFA9
:100CB000821B930B0895A29FB001B39FC001A39F15
:100CC000700D811D1124911DB29F700D811D112485
:080CD000911D0895F894FFCF77
:100CD800010000000E0E01012057656C636F6D6501
:100CE80020746F205468652047616D652E2050720E
:100CF800657373203120746F2073746172742100DE
:100D080001000000900185017A016F016401412D05
:100D1800506C61792120422D53636F726520204306
:100D28002D4368617261637465720053434F524585
:040D38000020000097
:00000001FF
