S01F00004A7061726B3235395F437573746F6D5F50726F6A6563742E737265635D
S113000045C0000060C000005EC000005CC000008D
S11300105AC0000058C0000056C0000054C0000080
S113002052C0000050C000004EC000004CC0000090
S11300304AC0000091C0000046C0000044C0000057
S113004042C0000040C000003EC000003CC00000B0
S11300503AC0000038C0000036C0000034C00000C0
S113006032C0000030C000002EC000002CC00000D0
S11300702AC0000028C0000026C0000024C00000E0
S113008022C0000020C000001EC0000011241FBEBA
S1130090CFEFD0E4DEBFCDBF11E0A0E0B1E0EAE0F5
S11300A0FFE000E00BBF02C007900D92AA35B10734
S11300B0D9F721E0AAE5B1E001C01D92A73BB20740
S11300C0E1F780D520C79CCFFC010FB6F89460916E
S11300D0B3017091B4018091B5019091B6010FBE46
S11300E0309721F0608371838283938308956093B2
S11300F02501709326018093270190932801609332
S113010091017093920180939301909394010895C7
S11301108BE0809381008DE790E090938900809339
S1130120880082E080936F00109285001092840012
S11301308091250190912601A0912701B091280179
S11301408093910190939201A0939301B0939401B1
S11301508FB780688FBF08951F920F920FB60F92CA
S113016011248F939F93AF93BF93809191019091AA
S11301709201A0919301B09194010197A109B10951
S11301808093910190939201A0939301B093940171
S1130190892B8A2B8B2B99F481E080939501809194
S11301A0250190912601A0912701B0912801809307
S11301B0910190939201A0939301B0939401BF9104
S11301C0AF919F918F910F900FBE0F901F90189534
S11301D0181619065CF00895000021503109E1F762
S11301E04F5F5F4F8417950719F4089540E050E07E
S11301F027E033E0F1CF40988BB9419A0000419851
S113020082E090E0E5CF089581E0F5CF0895813153
S113021018F48158F0CF08958155EDCF089584E600
S113022090E0D6DF88E3E7DF86E0E5DF8FE0E3DF19
S113023081E0E1DF8AE090E0CBCF0895409A8BB96A
S1130240419A0000419881E090E0C2CF089588E48B
S1130250D2DF8EE190E0F2DF82E190E0EFDF8FE128
S113026090E0ECDF80E090E0E9DF82E190E0E6DF1F
S113027080E090E0E3DF8CE090E0E0DF80E090E07D
S1130280DDCF089580E5B7DF8FE190E0D7DF88E028
S113029090E0D4DF84E090E0D1DF82E090E0CEDF34
S11302A082E090E0CBDF84E090E0C8DF88E090E07B
S11302B0C5DF8FE190E0C2CF089588E59CDF81E13E
S11302C090E0BCDF8BE190E0B9DF8BE190E0B6DF3A
S11302D08FE190E0B3DF8FE190E0B0DF8BE190E05D
S11302E0ADDF8BE190E0AADF81E190E0A7CF089534
S11302F00F931F93CF93DF93182FEB0185DF888132
S1130300882351F001E0010F812F81DF899196DF6D
S1130310102F88818111F6CFDF91CF911F910F911A
S113032008958CE068CF08958F929F92AF92BF9208
S1130330CF92DF92EF92FF920F931F93CF93DF93AD
S11303408C018130910509F462C01CF4892B49F0B9
S1130350CDC18230910509F4B3C1039709F421C1D9
S1130360C5C180917B018F5F80937B0180910401E3
S11303708E5F8093040110927D0110927F01109290
S11303807E0180918A018111D2C10F2EF4E1EF2EFA
S1130390F1E0FF2EF02D0F2EF3E28F2EF1E09F2ED1
S11303A0F02DE7010F2EF2E3CF2ED12CF02D0F2EDE
S11303B0F1E2AF2EB12CF02D80917B0190E047D576
S11303C0B601B2D4019729F43FD5B501ADD48883E1
S11303D001C018828091040190E039D521968C16D1
S11303E09D0651F7A5E0B1E024E131E00DC0819113
S11303F09C91981301C018828E169F06C1F711961E
S11304002A173B0709F49EC1F701ED01F0CF059BC4
S113041091C180918A01813009F06BC180918E0174
S1130420813009F066C104E111E00F2EF3E2CF2E12
S1130430F1E0DF2EF02DE8017E018991E8DE82E013
S1130440FDDEF7018081813019F4E1DE80E2F6DE21
S1130450CC16DD0689F7C0E08C2F90E09C012B5F61
S11304603E4F7901F9018081D2DE83E0E7DEF701B6
S11304708081813019F4CBDE80E2E0DECF5FCF30C3
S113048059F748C14701F7012081809124012813BD
S113049021C0C093800180917F01893068F010925F
S11304A07F0180917E018F5F80937E0180917D0129
S11304B08F5F80937D0108C08F5F80937F0180915F
S11304C07D018F5F80937D01BFD4B5012DD4F401EC
S11304D080830FC08091230190E0019730E0821760
S11304E0930739F4C0938001AFD4B5011DD4F7014B
S11304F08083CF5FFFEFEF1AFF0ACF3009F0C2CF3E
S1130500E8018881813019F0833028F001C080E24D
S11305108150888308C0823031F479DE80E28EDE37
S113052000DF80E288830F5F1F4FC016D10641F7BA
S113053005E011E00F2EF4E1EF2EF1E0FF2EF02D97
S1130540E8016E018881813019F0833030F001C0F8
S113055080E28150F601808308C0823031F457DE96
S113056080E26CDEDEDE80E288832196EC16FD06F6
S113057041F73091240190918E0180918A0120E00D
S1130580F80141918F01431302C0822F922FE0168C
S1130590F106B1F790938E0180938A0103E010E095
S11305A0D1C0059BCAC080918A01813009F0A1C0E5
S11305B080918E01813009F09CC004E111E00F2E7E
S11305C0F3E2EF2EF1E0FF2EF02DE801899188236C
S11305D029F08F5F1CDE80E231DEA3DECE15DF055D
S11305E0A9F7C0E00F2EF1E2EF2EF12CF02D6801F7
S11305F0F801808190912401891321C0C093800166
S113060080917F01893068F010927F0180917E0192
S11306108F5F80937E0180917D018F5F80937D0148
S113062008C08F5F80937F0180917D018F5F8093ED
S11306307D010AD4B70178D3F60180830BC0909171
S11306402301891307C0C0938001FED3B7016CD383
S1130650F8018083CF5F0F5F1F4FCF3041F6C5E0B5
S1130660D1E00F2EF4E1EF2EF1E0FF2EF02D8E01FC
S1130670F80181918F01882329F08F5FC8DD80E222
S1130680DDDD4FDE0E151F0599F730912401209111
S11306908E0190918A0180E04991431729F032300C
S11306A029F4982F282F02C0982F282FEC16FD0626
S11306B099F720938E0190938A0101E010E042C0E3
S11306C080917C018F5F80937C018A3091F4109239
S11306D07C0180E090E0C6D360917D01861780F5AF
S11306E080E090E0C7D300E010E02CC00230110598
S11306F049F581E085B98BDD80917E01805D9EDDC9
S113070082E085DD80917F01805D98DD0ADE02E074
S113071010E018C00F2EF4E1EF2EF1E0FF2EF02DC3
S1130720C0E00F2EF1E2AF2EB12CF02DABCE01E0E4
S113073010E008C000E010E005C000E010E002C0D6
S113074000E010E0C801DF91CF911F910F91FF905D
S1130750EF90DF90CF90BF90AF909F908F900895CF
S11307608FEE88B90000309B29C0319B29C0329B91
S113077029C0339B29C08FED88B90000309B26C067
S1130780319B26C0329B26C0339B26C08FEB88B991
S11307900000309B23C0319B23C0329B23C0339B7A
S11307A023C08FE788B90000309B20C0319B20C054
S11307B0329B20C0339B20C080E0089581E30895DC
S11307C084E3089587E308958AE2089582E308950F
S11307D085E3089588E3089580E3089583E3089505
S11307E086E3089589E3089583E2089581E40895F2
S11307F082E4089583E4089584E40895CF938230D5
S1130800910589F134F4009759F081309105F9F09C
S113081042C08330910591F18430910591F13BC040
S113082010928E0180918F01813039F410928F01E2
S113083080938E0181E090E084C0823019F410929C
S11308408F014EC0833039F510928F0174C020910E
S11308508E01213019F410928F0173C0211171C0DF
S113086084E090E06EC010928F0180B190E080959A
S113087090958C709927892B71F432C010928F0156
S11308805AC0209196012F5F2A3019F020939601C7
S113089058C0109296016FE271E081E029DD41DDDC
S11308A05FDF8093970180B190E080959095887187
S11308B099278031910519F0089779F407C0A4DCD1
S11308C081E080938F0180E090E03BC09DDC82E07A
S11308D080938F0180E090E034C080E090E031C0EC
S11308E081E095DC80E090E0BDD2CDEC8C9F912D31
S11308F01124969596959695990F292F220F220FDC
S1130900920F891B80938D0180E090E0ABD28C9F85
S1130910812D112486958695869580938C01805D22
S11309208DDC82E074DC80918D01805D87DCF9DCF4
S113093082E090E006C06EE471E081E0D9DC83E0FF
S113094090E0CF910895EAE7F0E08081806E8083A3
S11309500895AB01BC01411551056105710561F0B4
S113096080E090E0DC0100000196A11DB11D481754
S113097059076A077B07B9F7089580E480937C00E0
S113098064EF71E080E090E0E4DF80917800909182
S11309907900089581E480937C0064EF71E080E045
S11309A090E0D7DF809178009091790008950F93BB
S11309B01F93CF93DF93EC018230910531F12CF436
S11309C0009759F00197E9F0A2C08330910509F42A
S11309D091C0049709F4E5C09AC0DCDF90938501C7
S11309E080938401CADF909383018093820191E014
S11309F080E020918E01213009F090E0C92FD82F9A
S1130A0086C081E080938A019DC0059907C0109239
S1130A108A0110928E01C0E0D0E0CEC080918E0198
S1130A20813009F063C00CE710E080E4F8018083B2
S1130A306CE271E080E090E08CDFC8E7D0E0888170
S1130A409981909387018093860181E4F8018083E2
S1130A506CE271E080E090E07CDF48815981509342
S1130A608901409388012091820130918301609132
S1130A70860170918701C9010A976817790740F4C4
S1130A8080912401803209F479C08F5F809324011E
S1130A90265F3F4F2617370740F4809124018130A9
S1130AA009F473C081508093240120918401309112
S1130AB08501C9010A974817590748F48091240110
S1130AC09FEF980F903118F4805F80932401265F84
S1130AD03F4F24173507B0F5809124019FEE980FFE
S1130AE0903180F58051809324012CC0882309F42F
S1130AF05BC028C010928A01809199018F5F8A306F
S1130B0019F08093990158C0109299012DC0C230F8
S1130B10D105C1F03CF4209709F44EC0C130D10591
S1130B2051F006C0C330D10509F446C02497E1F062
S1130B30C0E0D0E041C08091230169DB81E07EDB2D
S1130B40F0DB3AC08091230162DB80E277DB8091A5
S1130B5024015DDB81E072DBE4DB8091240180937E
S1130B602301C2E0D0E028C081E080932301809378
S1130B70240110928A01C4E0D0E01EC0265F3F4FDA
S1130B802617370708F48ECF12C0209184013091C4
S1130B908501B9016A5071094617570708F494CFC3
S1130BA0D1CFC0E0D0E008C0C3E0D0E005C02091C0
S1130BB08401309185018BCFCE01DF91CF911F91BC
S1130BC00F910895CF93DF93CDB7DEB72A970FB671
S1130BD0F894DEBF0FBECDBF11B88FEF82B984B9D0
S1130BE015B887B918B88AB98BB9CE0101966CDAF1
S1130BF0CB012DD12CDB46DB60DBA5DE80E090E071
S1130C0031D18F3F21F460E080E090E033D1E0E720
S1130C10F1E08091900180838AEF90E0A0E0B0E061
S1130C2081839283A383B4831582168217821086EC
S1130C302EEF33E032872187E5E6F1E020918B0146
S1130C40208381839283A383B483158216821782BF
S1130C50108627ED34E032872187EAE5F1E0209120
S1130C608101208381839283A383B48315821682B6
S1130C701782108684E991E092878187D0DA1092F6
S1130C80980186E0E9E2F1E0DE01159601900D920B
S1130C908A95E1F761E070E080E090E028DA38DAE4
S1130CA07E018BE0E80EF11C6E01A5E0CA0ED11C9A
S1130CB0F601019111916F01D80115964D915D9145
S1130CC06D917C91189711968D919D910D90BC9189
S1130CD0A02D481759076A077B0781F4F801808122
S1130CE00184F285E02D082E000C990B0995D8019A
S1130CF08C93F8011582168217821086F80185817B
S1130D009681A781B0850196A11DB11D8583968327
S1130D10A783B087CE14DF0459F680919501882308
S1130D20E1F310929501C0CF97FB072E16F40094BF
S1130D3006D077FD08D02DD007FC05D03EF4909561
S1130D4081959F4F0895709561957F4F0895A1E215
S1130D501A2EAA1BBB1BFD010DC0AA1FBB1FEE1F31
S1130D60FF1FA217B307E407F50720F0A21BB30B7C
S1130D70E40BF50B661F771F881F991F1A9469F7F8
S1130D8060957095809590959B01AC01BD01CF0154
S1130D900895AA1BBB1B51E107C0AA1FBB1FA617BE
S1130DA0B70710F0A61BB70B881F991F5A95A9F710
S1130DB080959095BC01CD0108958F929F92AF923A
S1130DC0BF92CF92DF92EF92FF92CF93DF93EC0129
S1130DD0688179818A819B816115710581059105FD
S1130DE021F464E279ED8BE597E02DE133EF41E006
S1130DF050E04ED049015A019B01AC01A7EAB1E48D
S1130E0063D06B017C01ACEEB4EFA501940168D012
S1130E10DC01CB018C0D9D1DAE1DBF1DB7FF03C0B2
S1130E200197A109B04888839983AA83BB839F77DC
S1130E30DF91CF91FF90EF90DF90CF90BF90AF9074
S1130E409F908F900895B9CF80E091E0B6CFA0E055
S1130E50B0E08093000190930101A0930201B0934C
S1130E6003010895F999FECF92BD81BDF89A99279F
S1130E7080B50895262FF999FECF1FBA92BD81BD82
S1130E8020BD0FB6F894FA9AF99A0FBE0196089508
S1130E90052E97FB16F400940FD057FD05D057DFAD
S1130EA007FC02D046F408C0509540953095219532
S1130EB03F4F4F4F5F4F0895909580957095619582
S1130EC07F4F8F4F9F4F08950FD0A59F900DB49FD4
S1130ED0900DA49F800D911D11240895B7FFF4CFA8
S1130EE0F3DF821B930B0895A29FB001B39FC0014F
S1130EF0A39F700D811D1124911DB29F700D811D42
S10D0F001124911D0895F894FFCF09
S1130F0A01000000010F00000000000000000000C2
S1130F1A00000000050C000000000F0000001E0085
S1130F2A001400010101000000700165015A014228
S1130F3A7574746F6E20332D506C617921202042B0
S1130F4A7574746F6E20322D53636F726500436833
S10D0F5A6172616374657200200087
S9030000FC
