:1000000045C0000060C000005EC000005CC0000091
:100010005AC0000058C0000056C0000054C0000084
:1000200052C0000050C000004EC000004CC0000094
:100030004AC0000091C0000046C0000044C000005B
:1000400042C0000040C000003EC000003CC00000B4
:100050003AC0000038C0000036C0000034C00000C4
:1000600032C0000030C000002EC000002CC00000D4
:100070002AC0000028C0000026C0000024C00000E4
:1000800022C0000020C000001EC0000011241FBEBE
:10009000CFEFD0E4DEBFCDBF11E0A0E0B1E0ECE3F4
:1000A000FFE000E00BBF02C007900D92A637B1073A
:1000B000D9F721E0A6E7B1E001C01D92A43DB20747
:1000C000E1F798D539C79CCFFC010FB6F894609141
:1000D000D0017091D1018091D2019091D3010FBED6
:1000E000309721F0608371838283938308956093B6
:1000F0002501709326018093270190932801609336
:10010000AE017093AF018093B0019093B101089557
:100110008BE0809381008DE790E09093890080933D
:10012000880082E080936F00109285001092840016
:100130008091250190912601A0912701B09128017D
:100140008093AE019093AF01A093B001B093B10141
:100150008FB780688FBF08951F920F920FB60F92CE
:1001600011248F939F93AF93BF938091AE01909191
:10017000AF01A091B001B091B1010197A109B109FE
:100180008093AE019093AF01A093B001B093B10101
:10019000892B8A2B8B2B99F481E08093B20180917B
:1001A000250190912601A0912701B091280180930B
:1001B000AE019093AF01A093B001B093B101BF9194
:1001C000AF919F918F910F900FBE0F901F90189538
:1001D000181619065CF00895000021503109E1F766
:1001E0004F5F5F4F8417950719F4089540E050E082
:1001F00027E033E0F1CF40988BB9419A0000419855
:1002000082E090E0E5CF089581E0F5CF0895813157
:1002100018F48158F0CF08958155EDCF089584E604
:1002200090E0D6DF88E3E7DF86E0E5DF8FE0E3DF1D
:1002300081E0E1DF8AE090E0CBCF0895409A8BB96E
:10024000419A0000419881E090E0C2CF089588E48F
:10025000D2DF8EE190E0F2DF82E190E0EFDF8FE12C
:1002600090E0ECDF80E090E0E9DF82E190E0E6DF23
:1002700080E090E0E3DF8CE090E0E0DF80E090E081
:10028000DDCF089580E5B7DF8FE190E0D7DF88E02C
:1002900090E0D4DF84E090E0D1DF82E090E0CEDF38
:1002A00082E090E0CBDF84E090E0C8DF88E090E07F
:1002B000C5DF8FE190E0C2CF089588E59CDF81E142
:1002C00090E0BCDF8BE190E0B9DF8BE190E0B6DF3E
:1002D0008FE190E0B3DF8FE190E0B0DF8BE190E061
:1002E000ADDF8BE190E0AADF81E190E0A7CF089538
:1002F00080E681DF8FE190E0A1DF80E190E09EDF8A
:1003000080E190E09BDF80E190E098DF80E190E089
:1003100095DF80E190E092DF80E190E08FDF8FE178
:1003200090E08CCF08950F931F93CF93DF93182FF6
:10033000EB016ADF8881882351F001E0010F812FF2
:1003400066DF89917BDF102F88818111F6CFDF91E5
:10035000CF911F910F9108958CE04DCF08958F920A
:100360009F92AF92BF92CF92DF92EF92FF920F9344
:100370001F93CF93DF934C018130910509F45BC04B
:100380001CF4892B61F0B4C182E08816910409F451
:1003900098C1C3E08C16910409F406C1A9C18091EB
:1003A00097018F5F80939701809104018E5F809306
:1003B00004011092990110929B0110929A01809170
:1003C000A60181119EC104E111E00F2EF3E2EF2E90
:1003D000F1E0FF2EF02D68010F2EF2E3AF2EB12CCD
:1003E000F02D8091970190E04BD5B501B6D40197DF
:1003F00011F0F60110828091040190E041D5FFEFE9
:10040000CF1ADF0AEC14FD0461F7A5E0B1E044E186
:1004100051E00EC081919C91981302C0E9011882AD
:10042000EE16FF06B9F711964A175B0709F49DC14E
:10043000F8019D01EFCF059B90C18091A60181300D
:1004400009F068C18091AB01813009F063C104E11A
:1004500011E00F2EF3E2CF2EF1E0DF2EF02DE801B8
:100460007E018991D4DE82E0E9DEF701808181306E
:1004700019F4CDDE80E2E2DECC15DD0589F7C0E0BF
:100480008C2F90E09C012B5F3E4F7901F901808118
:10049000BEDE83E0D3DEF7018081813019F4B7DE60
:1004A00080E2CCDECF5FCF3059F74AC14701F70178
:1004B00020818091240128130EC0C0939C0180915B
:1004C0009B01893010F010929B01D7D4B50145D41F
:1004D000F40180830FC08091230190E0019730E008
:1004E0008217930739F4C0939C01C7D4B50135D462
:1004F000F7018083CF5FFFEFEF1AFF0ACF30B1F62D
:10050000E8018881813019F0833028F001C080E251
:100510008150888308C0823031F479DE80E28EDE3B
:100520001BDF80E288830F5F1F4FC016D10641F7A3
:1005300005E011E00F2EF4E1EF2EF1E0FF2EF02D9B
:10054000E8016E018881813019F0833030F001C0FC
:1005500080E28150F601808308C0823031F457DE9A
:1005600080E26CDEF9DE80E288832196EC16FD06DF
:1005700041F7309124019091AB018091A60120E0D8
:10058000E80149918E01431302C0822F922FE01699
:10059000F106B1F79093AB018093A6010F2EF3E023
:1005A0008F2E912CF02DE1C0059BDAC08091A60121
:1005B000813009F0AFC08091AB01813009F0AAC051
:1005C00004E111E00F2EF3E2EF2EF1E0FF2EF02D0B
:1005D000E8018991882329F08F5F19DE80E22EDE01
:1005E000BBDECE15DF05A9F7C0E00F2EF1E2EF2E3E
:1005F000F12CF02D6801F80180819091240189137C
:1006000021C0C0939C0180919B01893068F01092B9
:100610009B0180919A018F5F80939A01809199014B
:100620008F5F8093990108C08F5F80939B018091B9
:1006300099018F5F8093990120D4B7018ED3F60181
:1006400080830BC090912301891307C0C0939C0144
:1006500014D4B70182D3F8018083CF5F0F5F1F4F9F
:10066000CF3041F6C5E0D1E00F2EF4E1EF2EF1E0FE
:10067000FF2EF02D8E01F80181918F01882329F042
:100680008F5FC5DD80E2DADD67DE0E151F0599F7A5
:10069000309124012091AB019091A60180E0499115
:1006A000431729F0323029F4982F282F02C0982FB1
:1006B000282FCE15DF0599F72093AB019093A60163
:1006C00020C0809198018F5F809398018A3011F546
:1006D0001092980180E090E0DED360919901861736
:1006E00008F041C080E090E0DED3812C912C3DC029
:1006F000F1E08F16910429F022E082169104A9F509
:1007000009C082E084DD84E099DD26DE88248394BC
:10071000912C2BC06FE271E081E005DE8CE077DD8B
:1007200080919A01805D8ADD8DE071DD80919B0171
:10073000805D84DD11DE6894882481F8912C15C0D9
:100740000F2EF4E1EF2EF1E0FF2EF02DC0E00F2E82
:10075000F1E2AF2EB12CF02DA9CE812C912C05C049
:10076000812C912C02C0812C912CC401DF91CF915E
:100770001F910F91FF90EF90DF90CF90BF90AF90BF
:100780009F908F9008958FEE88B90000309B29C00C
:10079000319B29C0329B29C0339B29C08FED88B97A
:1007A0000000309B26C0319B26C0329B26C0339B65
:1007B00026C08FEB88B90000309B23C0319B23C03B
:1007C000329B23C0339B23C08FE788B90000309B46
:1007D00020C0319B20C0329B20C0339B20C080E0D2
:1007E000089581E3089584E3089587E308958AE2F4
:1007F000089582E3089585E3089588E3089580E3EA
:10080000089583E3089586E3089589E3089583E2D4
:10081000089581E4089582E4089583E4089584E4CA
:100820000895CF938230910589F134F4009759F0FF
:1008300081309105F9F043C08330910599F18430FE
:10084000910599F13CC01092AB018091AC018130CF
:1008500039F41092AC018093AB0181E090E089C043
:10086000823019F41092AC014FC0833041F51092E0
:10087000AC0179C02091AB01213019F41092AC0188
:1008800078C0211176C084E090E073C08091A80107
:100890008F5F8093A8011092AC018A30A9F5109265
:1008A000A8010DC01092AC015EC02091B3012F5F72
:1008B000263019F02093B3015CC01092B3016BE3B2
:1008C00071E081E030DD48DD5EDF8093B40180B10E
:1008D00090E080959095887199278031910519F065
:1008E000089779F407C090DC81E08093AC0180E048
:1008F00090E03FC089DC82E08093AC0180E090E032
:1009000038C080E090E035C06AE571E081E00BDD41
:1009100081E17DDC80E090E0BED2CDEC8C9F912D1A
:100920001124969596959695990F292F220F220FAF
:10093000920F891B8093AA0180E090E0ACD28C9F3B
:10094000812D11248695869586958093A901805DD9
:1009500075DC82E15CDC8091AA01805D6FDCFCDCEF
:1009600082E090E006C069E671E081E0DCDC83E0D3
:1009700090E0CF910895EAE7F0E08081806E808377
:100980000895AB01BC01411551056105710561F088
:1009900080E090E0DC0100000196A11DB11D481728
:1009A00059076A077B07B9F7089580E480937C00B4
:1009B00064EF71E080E090E0E4DF80917800909156
:1009C0007900089581E480937C0064EF71E080E019
:1009D00090E0D7DF809178009091790008950F938F
:1009E0001F93CF93DF93EC018230910531F12CF40A
:1009F000009759F00197E9F0A2C08330910509F4FE
:100A000091C0049709F4E5C09AC0DCDF9093A1017E
:100A10008093A001CADF90939F0180939E0191E093
:100A200080E02091AB01213009F090E0C92FD82F50
:100A300086C081E08093A6019DC0059907C01092F1
:100A4000A6011092AB01C0E0D0E0CEC08091AB0116
:100A5000813009F063C00CE710E080E4F801808386
:100A60006CE271E080E090E08CDFC8E7D0E0888144
:100A700099819093A3018093A20181E4F80180837E
:100A80006CE271E080E090E07CDF48815981509316
:100A9000A5014093A40120919E0130919F01609196
:100AA000A2017091A301C9010A976817790740F460
:100AB00080912401803209F479C08F5F80932401F2
:100AC000265F3F4F2617370740F48091240181307D
:100AD00009F473C08150809324012091A0013091CA
:100AE000A101C9010A974817590748F480912401C8
:100AF0009FEF980F903118F4805F80932401265F58
:100B00003F4F24173507B0F5809124019FEE980FD1
:100B1000903180F58051809324012CC0882309F402
:100B20005BC028C01092A6018091B6018F5F8A3009
:100B300019F08093B60158C01092B6012DC0C23092
:100B4000D105C1F03CF4209709F44EC0C130D10565
:100B500051F006C0C330D10509F446C02497E1F036
:100B6000C0E0D0E041C08091230151DB81E066DB31
:100B7000F3DB3AC0809123014ADB80E25FDB8091A6
:100B8000240145DB81E05ADBE7DB8091240180937F
:100B90002301C2E0D0E028C081E08093230180934C
:100BA00024011092A601C4E0D0E01EC0265F3F4F92
:100BB0002617370708F48ECF12C02091A00130917C
:100BC000A101B9016A5071094617570708F494CF7B
:100BD000D1CFC0E0D0E008C0C3E0D0E005C0209194
:100BE000A0013091A1018BCFCE01DF91CF911F9158
:100BF0000F910895CF93DF93CDB7DEB72A970FB645
:100C0000F894DEBF0FBECDBF11B88FEF82B984B9A3
:100C100015B887B918B88AB98BB9CE01019654DADC
:100C2000CB012ED114DB2EDB48DB62DBA4DE80E0BF
:100C300090E031D18F3F21F460E080E090E033D14B
:100C4000ECE8F1E08091AD0180838AEF90E0A0E0D4
:100C5000B0E081839283A383B483158216821782C6
:100C6000108621E134E032872187E1E8F1E020912C
:100C7000A701208381839283A383B4831582168284
:100C8000178210862FEE34E032872187E6E7F1E005
:100C900020919D01208381839283A383B483158255
:100CA0001682178210868FEA91E092878187B7DAE1
:100CB0001092B50186E0E9E2F1E0DE0115960190BF
:100CC0000D928A95E1F761E070E080E090E00FDA44
:100CD0001FDA7E018BE0E80EF11C6E01A5E0CA0E62
:100CE000D11CF601019111916F01D80115964D911A
:100CF0005D916D917C91189711968D919D910D90BC
:100D0000BC91A02D481759076A077B0781F4F801A9
:100D100080810184F285E02D082E000C990B099545
:100D2000D8018C93F8011582168217821086F8017B
:100D300085819681A781B0850196A11DB11D85830E
:100D40009683A783B087CE14DF0459F68091B20151
:100D50008823E1F31092B201C0CF97FB072E16F45F
:100D6000009406D077FD08D02DD007FC05D03EF4C6
:100D7000909581959F4F0895709561957F4F089547
:100D8000A1E21A2EAA1BBB1BFD010DC0AA1FBB1F8F
:100D9000EE1FFF1FA217B307E407F50720F0A21B01
:100DA000B30BE40BF50B661F771F881F991F1A946E
:100DB00069F760957095809590959B01AC01BD0198
:100DC000CF010895AA1BBB1B51E107C0AA1FBB1F7F
:100DD000A617B70710F0A61BB70B881F991F5A95C7
:100DE000A9F780959095BC01CD0108958F929F92AF
:100DF000AF92BF92CF92DF92EF92FF92CF93DF93A9
:100E0000EC01688179818A819B8161157105810579
:100E1000910521F464E279ED8BE597E02DE133EF64
:100E200041E050E04ED049015A019B01AC01A7EAD4
:100E3000B1E463D06B017C01ACEEB4EFA501940189
:100E400068D0DC01CB018C0D9D1DAE1DBF1DB7FF11
:100E500003C00197A109B04888839983AA83BB8303
:100E60009F77DF91CF91FF90EF90DF90CF90BF9071
:100E7000AF909F908F900895B9CF80E091E0B6CF6A
:100E8000A0E0B0E08093000190930101A0930201E3
:100E9000B09303010895F999FECF92BD81BDF89AF0
:100EA000992780B50895262FF999FECF1FBA92BDD4
:100EB00081BD20BD0FB6F894FA9AF99A0FBE01963B
:100EC0000895052E97FB16F400940FD057FD05D01A
:100ED00057DF07FC02D046F408C050954095309586
:100EE00021953F4F4F4F5F4F089590958095709596
:100EF00061957F4F8F4F9F4F08950FD0A59F900D05
:100F0000B49F900DA49F800D911D11240895B7FFEB
:100F1000F4CFF3DF821B930B0895A29FB001B39F20
:100F2000C001A39F700D811D1124911DB29F700DF2
:0C0F3000811D1124911D0895F894FFCF3D
:100F3C0001000000010F190000000000000000007B
:100F4C0000000000050C00000A00080000071E034A
:100F5C000014000101010000008C0181017601598F
:100F6C006F75722053636F72653A00427574746FBB
:100F7C006E20332D506C6179212020427574746F72
:100F8C006E20322D53636F72650048696768657314
:100F9C00742053636F72653A0043686172616374C5
:060FAC0065720020000048
:00000001FF
