S01F00004A7061726B3235395F437573746F6D5F50726F6A6563742E737265635D
S113000045C0000060C000005EC000005CC000008D
S11300105AC0000058C0000056C0000054C0000080
S113002052C0000050C000004EC000004CC0000090
S11300304AC0000091C0000046C0000044C0000057
S113004042C0000040C000003EC000003CC00000B0
S11300503AC0000038C0000036C0000034C00000C0
S113006032C0000030C000002EC000002CC00000D0
S11300702AC0000028C0000026C0000024C00000E0
S113008022C0000020C000001EC0000011241FBEBA
S1130090CFEFD0E4DEBFCDBF11E0A0E0B1E0E0EFF0
S11300A0FDE000E00BBF02C007900D92A037B1073E
S11300B0D9F721E0A0E7B1E001C01D92A73DB20746
S11300C0E1F705D593C69CCFFC010FB6F894609177
S11300D0D3017091D4018091D5019091D6010FBEC6
S11300E0309721F0608371838283938308956093B2
S11300F03C0170933D0180933E0190933F016093D6
S1130100B1017093B2018093B3019093B401089547
S11301108BE0809381008DE790E090938900809339
S1130120880082E080936F00109285001092840012
S113013080913C0190913D01A0913E01B0913F011D
S11301408093B1019093B201A093B301B093B40131
S11301508FB780688FBF08951F920F920FB60F92CA
S113016011248F939F93AF93BF938091B10190918A
S1130170B201A091B301B091B4010197A109B109F1
S11301808093B1019093B201A093B301B093B401F1
S1130190892B8A2B8B2B99F481E08093B501809174
S11301A03C0190913D01A0913E01B0913F018093AB
S11301B0B1019093B201A093B301B093B401BF9184
S11301C0AF919F918F910F900FBE0F901F90189534
S11301D0181619065CF00895000021503109E1F762
S11301E04F5F5F4F8417950719F4089540E050E07E
S11301F027E033E0F1CF40988BB9419A0000419851
S113020082E090E0E5CF089581E0F5CF0895813153
S113021018F48158F0CF08958155EDCF089584E600
S113022090E0D6DF88E3E7DF86E0E5DF8FE0E3DF19
S113023081E0E1DF8AE090E0CBCF0895409A8BB96A
S1130240419A0000419881E090E0C2CF089588E48B
S1130250D2DF84E090E0F2DF8EE090E0EFDF8EE02A
S113026090E0ECDF8EE090E0E9DF8FE190E0E6DF04
S113027080E090E0E3DF84E090E0E0DF80E090E085
S1130280DDCF08950F931F93CF93DF93182FEB01C6
S1130290BBDF8881882351F001E0010F812FB7DF94
S11302A08991CCDF102F88818111F6CFDF91CF9116
S11302B01F910F9108958CE09ECF08952F923F9245
S11302C04F925F926F927F928F929F92AF92BF9262
S11302D0CF92DF92EF92FF920F931F93CF93DF930E
S11302E06C018130910509F45DC08230910509F4F7
S11302F012C1892B09F0A8C18091AB01811187C17A
S11303000F2EF4E0AF2EF1E0BF2EF02DC2E9D1E0C4
S11303100F2EF3E18F2EF1E09F2EF02D7E0185014B
S11303200F2EF6E06F2E712CF02D0F2EF4E14F2ED0
S1130330512CF02D0F2EF1E22F2E312CF02DFED466
S1130340B3016CD4019731F4F9D4B10167D4F80145
S113035080830DC0F3D4B20161D4019731F4EED49B
S1130360B1015CD4F701808302C0F80110820F5FF1
S11303701F4FFFEFEF1AFF0A8016910601F721EADB
S113038031E00DC081919881981301C01C928E16A2
S11303909F06C1F721962C173D0709F455C1F501B5
S11303A0DE01F0CF8091AB01813009F034C180913E
S11303B0AD01813009F032C1C4E0D1E003E111E0C4
S11303C07E016701F70181917F0121DF81E036DF42
S11303D0F6018081813019F41ADF80E22FDFE01604
S11303E0F10679F7D12C8D2D90E09C012E563E4FCD
S11303F07901F90180810BDF85E020DFF70180813D
S1130400813019F404DF80E219DFD394FFE0DF12B6
S1130410EACF0DC1F50120818091140128130DC08C
S1130420909291018091AA018F5F8093AA0186D452
S1130430B601F4D3F501808314C08091130190E0D8
S1130440019730E08217930761F4909291018091B3
S1130450AA018F5F8093AA0171D4B601DFD3F5019D
S113046080839394FFEFAF1ABF0A2FE09212D2CF8A
S11304707E018881813019F0833030F001C080E240
S11304808150F701808308C0823031F4C0DE80E2FD
S1130490D5DE11DF80E2888321960C171D0741F712
S11304A002E911E00F2EF1EAEF2EF1E0FF2EF02D1C
S11304B0E8016E018881813019F0833030F001C089
S11304C080E28150F601808308C0823031F49FDEDF
S11304D080E2B4DEF0DE80E288832196EC16FD062D
S11304E041F7909114014091AD013091AB0120E0AE
S11304F0F80181918F01891302C0322F422FE01637
S1130500F106B1F74093AD013093AB016894CC246C
S1130510C1F8D12C99C08091AB01813009F081C020
S11305208091AD01813009F07FC0C4E0D1E00F2E8D
S1130530F3E1EF2EF1E0FF2EF02D8E01F801819111
S11305408F01882329F08F5F62DE80E277DEB3DEDD
S11305500E151F0599F710E00F2EF1E2CF2ED12CC6
S1130560F02D88819091140189130CC0109391018E
S11305708091AA018F5F8093AA01E0D3B6014ED384
S113058088830FC09091130189130BC010939101BC
S11305908091AA018F5F8093AA01D0D3B6013ED384
S11305A088831F5F21961F30E1F6C2E9D1E00F2E48
S11305B0F1EAEF2EF1E0FF2EF02D8E01F80181918A
S11305C08F01882329F08F5F22DE80E237DE73DE1D
S11305D0E016F10699F7909114014091AD01309124
S11305E0AB0120E08991891729F0923029F4322F48
S11305F0422F02C0322F422FEC16FD0699F740938A
S1130600AD013093AB01CC24C394D12C1DC0CC24B8
S1130610C394D12C19C0C12CD12C16C0C12CD12CFF
S113062013C0C12CD12C10C0C12CD12C0DC00F2E45
S1130630F4E0AF2EF1E0BF2EF02D912C0F2EF1E25D
S1130640CF2ED12CF02DE6CEC601DF91CF911F9194
S11306500F91FF90EF90DF90CF90BF90AF909F905D
S11306608F907F906F905F904F903F902F90089560
S11306708FEE88B90000309B29C0319B29C0329B82
S113068029C0339B29C08FED88B90000309B26C058
S1130690319B26C0329B26C0339B26C08FEB88B982
S11306A00000309B23C0319B23C0329B23C0339B6B
S11306B023C08FE788B90000309B20C0319B20C045
S11306C0329B20C0339B20C080E0089581E30895CD
S11306D084E3089587E308958AE2089582E3089500
S11306E085E3089588E3089580E3089583E30895F6
S11306F086E3089589E3089583E2089581E40895E3
S113070082E4089583E4089584E408950F931F9385
S1130710CF93DF93EC018230910541F12CF40097E3
S113072051F0019769F06FC08430910571F154F173
S1130730059771F168C0009936C01092AF0163C08B
S11307408091AF01813039F41092AF018093AD01F3
S1130750C2E0D0E080C0823019F41092AF0175C0BD
S1130760833009F050C01092AF0168C08091AD0190
S1130770813019F41092AF016EC081116CC0C5E0D4
S1130780D0E069C01092AF0160C01092AF0156C0B2
S11307908091B6018F5F8A3019F08093B6015BC0F7
S11307A01092B60130C064DF8093B701813331F415
S11307B01092B70184E08093AF014DC06091AE0107
S11307C070E06B5E7E4F40E150E08AEB91E0C4D272
S11307D01092CA0119DD6AEB71E081E053DD80916A
S11307E0AE018F5F95E6899F212D1124982F921BCE
S11307F09695920F92959F7027E1929F80191124EC
S11308008093AE0128C066E471E081E03BDD53DDF6
S11308102FDF8093B70190B181E08927082F017001
S113082010E00130110539F4EFDC81E08093AF0171
S1130830C1E0D0E010C0C1E0D0E00DC069E571E0D6
S113084081E020DDC4E0D0E006C063E671E081E031
S113085019DDC3E0D0E0CE01DF91CF911F910F915C
S11308600895EAE7F0E08081806E80830895AB010B
S1130870BC01411551056105710561F080E090E00E
S1130880DC0100000196A11DB11D481759076A0734
S11308907B07B9F7089580E480937C0064EF71E0EE
S11308A080E090E0E4DF80917800909179000895F1
S11308B081E480937C0064EF71E080E090E0D7DF16
S11308C0809178009091790008950F931F93CF93AE
S11308D0DF93EC018230910531F12CF4009759F04B
S11308E00197E9F098C08330910509F487C0049713
S11308F009F4C9C090C0DCDF9093A5018093A401E2
S1130900CADF9093A3018093A20191E080E020913B
S1130910AD01213009F090E0C92FD82F7CC081E0CF
S11309208093AB018DC08091AD01813009F063C02B
S11309300CE710E080E4F80180836CE271E080E071
S113094090E095DFC8E7D0E0888199819093A70172
S11309508093A60181E4F80180836CE271E080E079
S113096090E085DF488159815093A9014093A80103
S11309702091A2013091A3016091A6017091A70179
S1130980C9010A976817790740F4809114018032ED
S113099009F47FC08F5F80931401265F3F4F2617B1
S11309A0370740F480911401813009F479C08150F3
S11309B0809314012091A4013091A501C9010A97E3
S11309C04817590748F4809114019FEF980F90310C
S11309D018F4805F80931401265F3F4F2417350776
S11309E078F5809114019FEE980F903148F580516D
S11309F08093140125C08823A9F122C01092AB0171
S1130A008091B9018F5F8A3019F08093B9012AC0AF
S1130A101092B9012EC0C230D10591F024F4C13036
S1130A20D10539F033C0C330D105E1F0249709F181
S1130A302DC080911301EBDB81E000DC3CDC41C084
S1130A4080911301E4DB80E2F9DB80911401DFDBA8
S1130A5081E0F4DB30DC8091140180931301C2E067
S1130A60D0E02FC069E671E081E00CDCC3E0D0E0A7
S1130A7028C081E080931301809314011092AB018C
S1130A80C4E0D0E01EC0C0E0D0E01BC0C0E0D0E0B5
S1130A9018C0265F3F4F2617370708F488CF0CC0CD
S1130AA02091A4013091A501B9016A50710946173A
S1130AB0570708F48ECFC4CF2091A4013091A5012B
S1130AC08BCFCE01DF91CF911F910F910895CF93DA
S1130AD0DF93CDB7DEB72A970FB6F894DEBF0FBE0B
S1130AE0CDBF11B88FEF82B984B915B887B918B8DA
S1130AF08AB98BB9CE010196E7DACB0122D1A7DB03
S1130B00B0DEE6E8F1E08091B00180838AEF90E006
S1130B10A0E0B0E081839283A383B483158216821C
S1130B201782108626E833E032872187EBE7F1E06D
S1130B302091AC01208381839283A383B4831582A3
S1130B4016821782108625E634E032872187E0E793
S1130B50F1E02091A101208381839283A383B48354
S1130B6015821682178210868EE591E0928781871E
S1130B7056DB1092B80186E0E0E4F1E0DE01159660
S1130B8001900D928A95E1F761E070E080E090E0D9
S1130B90AEDABEDA7E018BE0E80EF11C6E01A5E050
S1130BA0CA0ED11CF601019111916F01D80115965D
S1130BB04D915D916D917C91189711968D919D91B8
S1130BC00D90BC91A02D481759076A077B0781F443
S1130BD0F80180810184F285E02D082E000C990B28
S1130BE00995D8018C93F801158216821782108614
S1130BF0F80185819681A781B0850196A11DB11D5B
S1130C0085839683A783B087CE14DF0459F6809139
S1130C10B5018823E1F31092B501C0CF97FB072EED
S1130C2016F4009406D077FD08D02DD007FC05D02B
S1130C303EF4909581959F4F0895709561957F4FEF
S1130C400895A1E21A2EAA1BBB1BFD010DC0AA1F09
S1130C50BB1FEE1FFF1FA217B307E407F50720F021
S1130C60A21BB30BE40BF50B661F771F881F991F9C
S1130C701A9469F760957095809590959B01AC01E5
S1130C80BD01CF010895AA1BBB1B51E107C0AA1FD8
S1130C90BB1FA617B70710F0A61BB70B881F991F19
S1130CA05A95A9F780959095BC01CD0108958F922E
S1130CB09F92AF92BF92CF92DF92EF92FF92CF9327
S1130CC0DF93EC01688179818A819B8161157105CB
S1130CD08105910521F464E279ED8BE597E02DE13E
S1130CE033EF41E050E047D049015A019B01AC0188
S1130CF0A7EAB1E45CD06B017C01ACEEB4EFA501D2
S1130D00940161D0DC01CB018C0D9D1DAE1DBF1D76
S1130D10B7FF03C00197A109B04888839983AA83C8
S1130D20BB839F77DF91CF91FF90EF90DF90CF90BF
S1130D30BF90AF909F908F900895B9CF80E091E0DD
S1130D40B6CFA0E0B0E08093000190930101A0939E
S1130D500201B09303010895FB01DC0141505040AE
S1130D6048F001900D920020C9F701C01D92415036
S1130D705040E0F70895052E97FB16F400940FD029
S1130D8057FD05D05EDF07FC02D046F408C050953D
S1130D904095309521953F4F4F4F5F4F0895909563
S1130DA08095709561957F4F8F4F9F4F08950FD019
S1130DB0A59F900DB49F900DA49F800D911D1124AB
S1130DC00895B7FFF4CFF3DF821B930B0895A29F1E
S1130DD0B001B39FC001A39F700D811D1124911D0B
S1130DE0B29F700D811D1124911D0895F894FFCFB9
S1130DF001000000050C000000000F0000001E00B0
S1130E00001400010157656C636F6D6520746F20D9
S1130E105468652047616D652E2050726573732098
S1130E203120746F2073746172742100010000001A
S1130E3086017B017001412D506C61792120422D86
S1130E4053636F72652020432D436861726163743C
S1130E5065720053434F5245004C4F5345002000E8
S9030000FC
