:1000000045C0000060C000005EC000005CC0000091
:100010005AC0000058C0000056C0000054C0000084
:1000200052C0000050C000004EC000004CC0000094
:100030004AC000007EC0000046C0000044C000006E
:1000400042C0000040C000003EC000003CC00000B4
:100050003AC0000038C0000036C0000034C00000C4
:1000600032C0000030C000002EC000002CC00000D4
:100070002AC0000028C0000026C0000024C00000E4
:1000800022C0000020C000001EC0000011241FBEBE
:10009000CFEFD0E4DEBFCDBF11E0A0E0B1E0EEE4F1
:1000A000F6E000E00BBF02C007900D92A036B1074A
:1000B000D9F721E0A0E6B1E001C01D92A83AB2074D
:1000C000E1F711D2C2C29CCF60932701709328013F
:1000D0008093290190932A0160938801709389018C
:1000E00080938A0190938B0108958BE08093810027
:1000F0008DE790E0909389008093880082E0809360
:100100006F001092850010928400809127019091D9
:100110002801A0912901B0912A0180938801909330
:100120008901A0938A01B0938B018FB780688FBF3C
:1001300008951F920F920FB60F9211248F939F93E1
:10014000AF93BF938091880190918901A0918A011A
:10015000B0918B010197A109B10980938801909317
:100160008901A0938A01B0938B01892B8A2B8B2B59
:1001700099F481E080938C0180912701909128016E
:10018000A0912901B0912A0180938801909389015F
:10019000A0938A01B0938B01BF91AF919F918F91F2
:1001A0000F900FBE0F901F901895181619065CF04F
:1001B0000895000021503109E1F74F5F5F4F841728
:1001C000950719F4089540E050E027E033E0F1CFBF
:1001D00010988BB9119A0000119882E090E0E5CF59
:1001E000089581E0F5CF0895813118F48158F0CF5A
:1001F00008958155EDCF089584E690E0D6DF88E339
:10020000E7DF86E0E5DF8FE0E3DF81E0E1DF8AE042
:1002100090E0CBCF0895109A8BB9119A00001198F5
:1002200081E090E0C2CF089588E4D2DF84E090E0DE
:10023000F2DF8EE090E0EFDF8EE090E0ECDF8EE02A
:1002400090E0E9DF8FE190E0E6DF80E090E0E3DF3F
:1002500084E090E0E0DF80E090E0DDCF08950F9350
:100260001F93CF93DF93182FEB01BBDF8881882387
:1002700051F001E0010F812FB7DF8991CCDF102F02
:1002800088818111F6CFDF91CF911F910F91089551
:10029000CF93DF93EC01892B49F491E080E020912A
:1002A0008401213009F090E0C92FD82FC130D10549
:1002B00021F461E371E081E0D2DFCE01DF91CF91E3
:1002C0000895CF93DF93EC01892B49F491E080E00E
:1002D00020918401213009F090E0C92FD82FC1303E
:1002E000D10521F481E180DF81E095DFCE01DF914E
:1002F000CF9108958CE06CCF08958FEE88B90000FF
:10030000309B29C0319B29C0329B29C0339B29C017
:100310008FED88B90000309B26C0319B26C0329BF0
:1003200026C0339B26C08FEB88B90000309B23C0CA
:10033000319B23C0329B23C0339B23C08FE788B9F6
:100340000000309B20C0319B20C0329B20C0339BDB
:1003500020C080E0089581E3089584E3089587E351
:1003600008958AE2089582E3089585E3089588E375
:10037000089580E3089583E3089586E3089589E36B
:10038000089583E2089581E4089582E4089583E462
:10039000089584E40895CF93DF93EC0182309105B2
:1003A00029F12CF4009749F0019771F058C083307F
:1003B0009105F9F0049701F152C0809186018430D3
:1003C000F1F4109286014BC080918601813019F4BE
:1003D0001092860171C0823019F41092860172C0A9
:1003E000833009F03CC01092860173C010928601E0
:1003F00063C01092860166C0109286016AC07DDFDC
:1004000080938D01813331F410928D0184E08093CB
:10041000860165C06091850170E060507F4F40E1CA
:1004200050E08FE891E002D110929F01DADE6FE890
:1004300071E081E014DF809185018F5F95E6899FEF
:10044000212D1124982F921B9695920F92959F70B3
:1004500027E1929F801911248093850140C06BE3AE
:1004600071E081E0FCDE46DF48DF80938D0181345E
:1004700049F018F48823E9F014C0823449F0833439
:1004800069F00FC081E080938601C1E0D0E027C011
:1004900082E080938601C1E0D0E021C083E08093B8
:1004A00086016BE371E081E0DADE24DFC1E0D0E0B9
:1004B00016C0C1E0D0E013C081E080938401C2E0A7
:1004C000D0E00DC068E571E081E0C9DEC3E0D0E0B6
:1004D00006C06EE471E081E0C2DEC4E0D0E0CE018F
:1004E000DF91CF910895CF93DF9300D000D000D05B
:1004F000CDB7DEB78FEF81B912B884B915B890EFD8
:1005000097B99FE098B98AB98BB98EDEE6E7F1E03A
:100510008091870180838AEF90E0A0E0B0E0818342
:100520009283A383B48315821682178210862BECE4
:1005300031E032872187EBE6F1E0209183012083CF
:1005400081839283A383B4831582168217821086D7
:1005500028E431E032872187E0E6F1E02091820152
:10056000208381839283A383B483158216821782AA
:10057000108681E691E0928781873EDE10928E019F
:1005800086E0EBE2F1E0DE01119601900D928A9592
:10059000E1F761E070E080E090E096DDA6DD7E01AD
:1005A00087E0E80EF11C80B1809580938101DE0127
:1005B00011966D01F601019111916F01D801159607
:1005C0004D915D916D917C91189711968D919D91B2
:1005D0000D90BC91A02D481759076A077B0781F43D
:1005E000F80180810184F285E02D082E000C990B22
:1005F0000995D8018C93F80115821682178210860E
:10060000F80185819681A781B0850196A11DB11D54
:1006100085839683A783B087CE14DF0459F6809133
:100620008C018823E1F310928C01BDCFFB01DC012A
:100630004150504048F001900D920020C9F701C090
:0E0640001D9241505040E0F70895F894FFCF0E
:10064E0057656C636F6D6520746F20546865204725
:10065E00616D652E205072657373203120746F208A
:10066E00737461727421000100000076016B0160E9
:10067E000159454148484848484800412D506C6151
:10068E00792120422D53636F72652020432D4368DC
:10069E00617261637465720053434F5245002000CE
:00000001FF
